:020000040800F2
:1000000000000220FD40000895050008A105000839
:10001000A9050008B1050008B905000800000000A6
:10002000000000000000000000000000CD050008F6
:10003000C105000800000000D9050008E50500081A
:100040004541000845410008454100084541000878
:100050004541000845410008454100084541000868
:100060004541000845410008454100084541000858
:100070004541000845410008454100084541000848
:100080004541000845410008454100084541000838
:100090004541000845410008454100084541000828
:1000A0004541000845410008454100084541000818
:1000B00045410008F1050008454100084541000898
:1000C00045410008454100084541000845410008F8
:1000D00045410008454100084541000845410008E8
:1000E00045410008454100084541000845410008D8
:1000F00045410008454100084541000845410008C8
:1001000045410008454100084541000845410008B7
:1001100045410008454100084541000845410008A7
:100120004541000845410008454100084541000897
:100130004541000845410008454100084541000887
:100140004541000845410008454100084541000877
:100150004541000845410008454100084541000867
:100160004541000845410008454100084541000857
:100170004541000845410008454100084541000847
:0801800045410008454100085B
:1001880010B5054C237833B9044B13B10448AFF3C9
:1001980000800123237010BD940900200000000096
:1001A8003C500008084B10B51BB108480849AFF38C
:1001B80000800848036803B910BD074B002BFBD02B
:1001C800BDE81040184700BF000000003C50000880
:1001D800980900209009002000000000162030A196
:1001E800ABBE2F484168364A11600168002901D129
:1001F800324901608168C268002900D08D46002A12
:1002080001D002F5807A00218B460F462548264A00
:10021800121A03F011FB03F069FC152025A1ABBEEF
:100228002449002001B40B780131002B15D0202B74
:10023800F9D0222B01D0272B01D11A0001E020226E
:10024800013902B401300B780131002B05D09A42F4
:10025800F9D100224B1E1A70E5E7694602009200A8
:100268006A446B469A4206D9043A14681D681560B8
:100278001C600433F6E76C460725AC43A54604002A
:100288000D000A48002802D0094803F097FB03F044
:10029800ABFA2000290000F015F803F095FA00BF2A
:1002A8000400002094090020A40A0020C539000891
:1002B800D139000814000020FF000000A40A002023
:1002C8007C05002080B500AF0820012100F0E6FF82
:1002D800124B4FF400521A60104B01221A710F4B47
:1002E80000229A710D4B03225A710C4B0022DA71CD
:1002F8000B480A4900F038FB09484FF4005100F058
:100308004DFC084800F010F805484FF4005100F083
:1003180053FC6FF07F4000F007F8EDE7940A0020E7
:10032800000C0240FFFF3F0080B483B000AF78604C
:1003380000BF7B685A1E7A60002BFAD10C37BD4685
:100348005DF8047B704700BF80B500AF114A114BC0
:100358001B6843F0010313600E4B00229A600D4A9C
:100368000C4B1B6823F0847323F480331360094B10
:10037800094A5A60074A074B1B6823F48023136015
:10038800044B0022DA6000F087F8044B4FF000625B
:100398009A6080BD003802401030002400ED00E073
:1003A80080B487B000AF00233B6100237B61022348
:1003B800FB600023BB6002237B60324B9B6803F029
:1003C8000C033B613B69042B07D0082B09D0002B99
:1003D8003FD12D4B2D4A1A603FE02B4B2C4A1A6017
:1003E8003BE0284B5B6803F480039B0DBB60254B07
:1003F8005B6803F03F037B60BB68002B0DD0244A89
:100408007B68B2FBF3F21F4B596847F6C0730B4089
:100418009B0903FB02F37B610CE01C4A7B68B2FB7F
:10042800F3F2184B596847F6C0730B409B0903FB5E
:1004380002F37B61134B5B6803F440331B0C0133FD
:100448005B00FB607A69FB68B2FBF3F30E4A13604A
:1004580003E00D4B0D4A1A6000BF0A4B9B6803F07E
:10046800F0031B090B4AD35CDBB23B61064B1A68ED
:100478003B6922FA03F3044A13601C37BD465DF852
:10048800047B704700380240140100200024F40067
:1004980000127A001801002080B483B000AF002356
:1004A8007B6000233B60354A344B1B6843F4803340
:1004B8001360324B1B6803F400333B607B680133E5
:1004C8007B603B68002B03D17B68B3F5A06FF0D14C
:1004D8002A4B1B6803F40033002B02D001233B6036
:1004E80001E000233B603B68012B42D1234A234BA8
:1004F8001B6C43F080531364214A214B1B6843F45F
:10050800804313601D4A1D4B9B6893601B4A1B4B1D
:100518009B6843F400439360184A184B9B6843F464
:10052800A0539360154B174A5A60144A134B1B6823
:1005380043F08073136000BF104B1B6803F0007317
:10054800002BF9D0104B40F205621A600B4A0B4B96
:100558009B6823F003039360084A084B9B6843F0A9
:100568000203936000BF054B9B6803F00C03082B44
:10057800F9D10C37BD465DF8047B7047003802405E
:100588000070004008544007003C024080B400AFAF
:10059800BD465DF8047B704780B400AFFEE700BF3E
:1005A80080B400AFFEE700BF80B400AFFEE700BF35
:1005B80080B400AFFEE700BF80B400AFBD465DF871
:1005C800047B704780B400AFBD465DF8047B70477C
:1005D80080B400AFBD465DF8047B704780B400AFBF
:1005E800BD465DF8047B704780B500AF0D48022119
:1005F80002F0D0FB0346002B12D00A48022102F079
:10060800F3FB09484FF4805100F0A0FA0346C3F108
:100618000103DBB204484FF480511A4600F0DAFABD
:1006280080BD00BF00040040000C024080B400AF51
:10063800094B00221A60084B00225A60064B002220
:100648009A60054B0022DA60034B044A5A61BD46A2
:100658005DF8047B704700BF003C0140FFFF7F004E
:1006680080B485B000AF78600023FB60344BFB603A
:100678007B689B79002B4FD03149314B1A687B68D6
:100688001B68DB4313400B602D492D4B5A687B6870
:100698001B68DB4313404B607B681B791A46FB6879
:1006A8001344FB60FB68FA6811687A6812680A43A9
:1006B8001A602349224B9A687B681B68DB43134006
:1006C8008B601F491E4BDA687B681B68DB4313404D
:1006D800CB607B685B79102B0ED11949184B9A684F
:1006E8007B681B6813438B601549154BDA687B6878
:1006F8001B681343CB601DE0114BFB607B685B7983
:100708001A46FB681344FB60FB68FA6811687A684C
:1007180012680A431A600DE07B681B791A46FB6869
:100728001344FB60FB68FA6811687A681268D24360
:100738000A401A601437BD465DF8047B704700BF55
:10074800003C014080B483B000AF78607B68002231
:100758001A607B6800221A717B680C225A717B68C8
:1007680000229A710C37BD465DF8047B704700BFC4
:1007780080B483B000AF78600549054B1A697B687F
:1007880013430B610C37BD465DF8047B704700BF0F
:10079800003C014080B485B000AF78600023FB7353
:1007A800084B5A697B681340002B02D00123FB7366
:1007B80001E00023FB73FB7B18461437BD465DF848
:1007C800047B7047003C014080B483B000AF786080
:1007D800034A7B6853610C37BD465DF8047B70475C
:1007E800003C014080B485B000AF78600023FB7303
:1007F8000023BB600C4B1A687B681340BB600A4B34
:100808005A697B681340002B05D0BB68002B02D0C7
:100818000123FB7301E00023FB73FB7B18461437AD
:10082800BD465DF8047B7047003C014080B483B04E
:1008380000AF7860034A7B6853610C37BD465DF8AA
:10084800047B7047003C014080B582B000AF7860FF
:100858007B683C4A934208D10120012100F0B4FD95
:100868000120002100F0B0FD68E07B68364A934221
:1008780008D10220012100F0A7FD0220002100F08C
:10088800A3FD5BE07B68314A934208D10420012133
:1008980000F09AFD0420002100F096FD4EE07B68F0
:1008A8002B4A934208D10820012100F08DFD082031
:1008B800002100F089FD41E07B68264A934208D177
:1008C8001020012100F080FD1020002100F07CFDA7
:1008D80034E07B68204A934208D12020012100F0AF
:1008E80073FD2020002100F06FFD27E07B681B4A84
:1008F800934208D14020012100F066FD40200021EC
:1009080000F062FD1AE07B68154A934208D1802006
:10091800012100F059FD8020002100F055FD0DE077
:100928007B68104A934209D14FF48070012100F08E
:100938004BFD4FF48070002100F046FD0837BD469E
:1009480080BD00BF000002400004024000080240D1
:10095800000C02400010024000140240001802403F
:10096800001C02400020024080B487B000AF7860CD
:10097800396000237B6100233B610023FB60002377
:100988007B6176E07B69012202FA03F33B613B68F5
:100998001A683B691340FB60FA683B699A4265D163
:1009A8007B681A687B695B00194603238B40DB432D
:1009B8001A407B681A607B681A683B681B7919467D
:1009C8007B695B0001FA03F31A437B681A603B6892
:1009D8001B79012B03D03B681B79022B2ED17B6836
:1009E8009A687B695B00194603238B40DB431A40F6
:1009F8007B689A607B689A683B685B7919467B6973
:100A08005B0001FA03F31A437B689A607B685A68B3
:100A18007B699BB2194601238B40DB431A407B68F4
:100A28005A607B685B683A68927911467A6992B233
:100A380001FA02F292B21A437B685A607B68DA685C
:100A48007B699BB25B00032101FA03F3DB431A4085
:100A58007B68DA607B68DA683B68DB7919467B6912
:100A68005B0001FA03F31A437B68DA607B690133A0
:100A78007B617B690F2B85D91C37BD465DF8047BEC
:100A8800704700BF80B483B000AF78607B684FF6D2
:100A9800FF721A607B6800221A717B6800225A7103
:100AA8007B6800229A717B680022DA710C37BD4698
:100AB8005DF8047B704700BF80B485B000AF7860F4
:100AC8000B467B804FF48033FB607A88FB681343C6
:100AD800FB60FA687B68DA617A887B68DA61FA68B1
:100AE8007B68DA617B68DB69FB607B68DB69FB60DC
:100AF8001437BD465DF8047B704700BF80B485B0ED
:100B080000AF78600B467B800023FB737B681A6913
:100B18007B881340002B02D00123FB7301E00023E4
:100B2800FB73FB7B18461437BD465DF8047B7047A2
:100B380080B483B000AF78607B681B699BB21846AD
:100B48000C37BD465DF8047B704700BF80B485B0A4
:100B580000AF78600B467B800023FB737B685A6983
:100B68007B881340002B02D00123FB7301E0002394
:100B7800FB73FB7B18461437BD465DF8047B704752
:100B880080B483B000AF78607B685B699BB218461D
:100B98000C37BD465DF8047B704700BF80B483B056
:100BA80000AF78600B467B807B687A881A830C37A5
:100BB800BD465DF8047B704780B483B000AF7860B1
:100BC8000B467B807B687A885A830C37BD465DF874
:100BD800047B704780B483B000AF78600B467B809D
:100BE80013467B707B78002B03D07B687A881A8346
:100BF80002E07B687A885A830C37BD465DF8047B2F
:100C0800704700BF80B483B000AF78600B467B802C
:100C18007A887B685A610C37BD465DF8047B70475B
:100C280080B483B000AF78600B467B807B685A69DC
:100C38007B885A407B685A610C37BD465DF8047B57
:100C4800704700BF80B485B000AF78600B467B80EA
:100C580013467B700023FB600023BB607B787A8897
:100C680002F0070292009340FB607B88DB089BB28E
:100C780018467B88DB089BB21A467B68083253F813
:100C880022207B8803F007039B0019460F238B4023
:100C9800DB4302EA03017B6800F1080243F82210F3
:100CA8007B88DB089BB21A467B68083253F82220FF
:100CB800FB681343BB607B88DB089BB21A467B68E2
:100CC8000832B96843F822101437BD465DF8047B32
:100CD800704700BF80B400AF104A104B1B6843F048
:100CE800010313600D4B00229A600C4A0B4B1B68E2
:100CF80023F0847323F480331360084B084A5A6046
:100D0800064A064B1B6823F480231360034B00221A
:100D1800DA60BD465DF8047B704700BF00380240CA
:100D28001030002480B483B000AF0346FB71054B3C
:100D380000221A70034AFB7913700C37BD465DF820
:100D4800047B70470238024080B582B000AF0023B0
:100D58003B600023FB710023BB71312000F086FC4F
:100D68000346BB713B6801333B603B68B3F5A06F3A
:100D780002D0BB79002BF0D0312000F077FC03467D
:100D8800002B02D00123FB7101E00023FB71FB79EA
:100D980018460837BD4680BD80B485B000AF03460D
:100DA800FB710023FB600A4B1B68FB60FB6823F0A8
:100DB800F803FB60FB79DB00FA681343FB60044A25
:100DC800FB6813601437BD465DF8047B704700BFAD
:100DD8000038024080B483B000AF0346FB71044A78
:100DE800FB7913600C37BD465DF8047B704700BF84
:100DF8000000474280B483B000AF0346FB710C4B40
:100E080000221A700A4B00221A70FB79012B02D0BB
:100E1800042B04D007E0064B01221A7003E0044BB0
:100E280005221A7000BF0C37BD465DF8047B704779
:100E38007038024080B483B000AF0346FB71044AA7
:100E4800FB7913600C37BD465DF8047B704700BF23
:100E5800800E474280B485B000AFF860B9607A6010
:100E68003B600A497B689A01BB681A433B685B0888
:100E7800013B1B041A43FB681A43BB691B06134357
:100E88004B601437BD465DF8047B7047003802405C
:100E980080B483B000AF0346FB71044AFB7913604A
:100EA8000C37BD465DF8047B704700BF60004742C1
:100EB80080B483B000AF7860396006497B689A01D6
:100EC8003B681B071343C1F884300C37BD465DF8F7
:100ED800047B70470038024080B483B000AF0346FB
:100EE800FB71044AFB7913600C37BD465DF8047B3F
:100EF800704700BF6800474280B483B000AF034624
:100F0800FB71044AFB7913600C37BD465DF8047B1E
:100F1800704700BF4C00474280B485B000AF78608E
:100F280039600023FB600A4B9B68FB60FB6823F079
:100F3800EC63FB607A683B681343FA681343FB6011
:100F4800034AFB6893601437BD465DF8047B70471D
:100F58000038024080B485B000AF78603960002363
:100F6800FB600A4B9B68FB60FB6823F07843FB60DF
:100F78007A683B681343FA681343FB60034AFB68CB
:100F880093601437BD465DF8047B70470038024013
:100F980080B485B000AF78600023FB60094B9B6884
:100FA800FB60FB6823F00303FB60FA687B6813436C
:100FB800FB60044AFB6893601437BD465DF8047B08
:100FC800704700BF0038024080B400AF054B9B68F3
:100FD800DBB203F00C03DBB21846BD465DF8047BB8
:100FE800704700BF0038024080B485B000AF786019
:100FF8000023FB60094B9B68FB60FB6823F0F00350
:10100800FB60FA687B681343FB60044AFB689360E3
:101018001437BD465DF8047B704700BF00380240B6
:1010280080B485B000AF78600023FB60094B9B68F3
:10103800FB60FB6823F4E053FB60FA687B681343AA
:10104800FB60044AFB6893601437BD465DF8047B77
:10105800704700BF0038024080B485B000AF7860A8
:101068000023FB60094B9B68FB60FB6823F460432B
:10107800FB607B68DB00FA681343FB60034AFB688C
:1010880093601437BD465DF8047B70470038024012
:1010980080B489B000AF78600023BB6100237B6116
:1010A8000023FB6102233B610023FB600223BB603A
:1010B800484B9B6803F00C03BB61BB69042B07D04A
:1010C800082B09D0002B3FD17B68434A1A603FE0C8
:1010D8007B68424A1A603BE03E4B5B6803F480033E
:1010E8009B0DFB603B4B5B6803F03F03BB60FB68F9
:1010F800002B0DD0394ABB68B2FBF3F2354B596867
:1011080047F6C0730B409B0903FB02F3FB610CE03D
:10111800314ABB68B2FBF3F22E4B596847F6C073ED
:101128000B409B0903FB02F3FB612A4B5B6803F44A
:1011380040331B0C01335B003B61FA693B69B2FB2E
:10114800F3F27B681A6003E07B68234A1A6000BFE9
:10115800204B9B6803F0F003BB61BB691B09BB61B3
:101168001F4ABB6913441B78DBB27B617B681A6832
:101178007B69DA407B685A60164B9B6803F4E0533E
:10118800BB61BB699B0ABB61154ABB6913441B78E9
:10119800DBB27B617B685A687B69DA407B689A605E
:1011A8000C4B9B6803F46043BB61BB695B0BBB6181
:1011B8000B4ABB6913441B78DBB27B617B685A68B6
:1011C8007B69DA407B68DA602437BD465DF8047BCA
:1011D800704700BF003802400024F40000127A0073
:1011E8002801002080B485B000AF78600023FB6040
:1011F8007B6803F44073B3F5407F11D10F4B9B68B4
:10120800FB60FB6823F4F813FB607B6823F07043F2
:1012180023F44073FA681343FB60084AFB68936041
:101228000649064B1A6F7B68C3F30B0313430B671E
:101238001437BD465DF8047B704700BF0038024094
:1012480080B483B000AF0346FB71044AFB79136096
:101258000C37BD465DF8047B704700BF3C0E474223
:1012680080B483B000AF0346FB71044AFB79136076
:101278000C37BD465DF8047B704700BF400E4742FF
:1012880080B483B000AF7860034A7B6813600C3782
:10129800BD465DF8047B70475C01474280B483B06B
:1012A80000AF78600B46FB70FB78002B06D009492D
:1012B800084B1A6B7B6813430B6306E00549054B23
:1012C8001A6B7B68DB4313400B630C37BD465DF834
:1012D800047B70470038024080B483B000AF786068
:1012E8000B46FB70FB78002B06D00949084B5A6B5C
:1012F8007B6813434B6306E00549054B5A6B7B68D3
:10130800DB4313404B630C37BD465DF8047B7047E5
:101318000038024080B483B000AF78600B46FB70A1
:10132800FB78002B06D00949084B9A6B7B6813435E
:101338008B6306E00549054B9A6B7B68DB431340DA
:101348008B630C37BD465DF8047B7047003802405C
:1013580080B483B000AF78600B46FB70FB78002B3D
:1013680006D00949084B1A6C7B6813430B6406E0E6
:101378000549054B1A6C7B68DB4313400B640C373B
:10138800BD465DF8047B70470038024080B483B0E6
:1013980000AF78600B46FB70FB78002B06D009493C
:1013A800084B5A6C7B6813434B6406E00549054BB0
:1013B8005A6C7B68DB4313404B640C37BD465DF8C1
:1013C800047B70470038024080B483B000AF786077
:1013D8000B46FB70FB78002B06D00949084B1A69AD
:1013E8007B6813430B6106E00549054B1A697B6866
:1013F800DB4313400B610C37BD465DF8047B704737
:101408000038024080B483B000AF78600B46FB70B0
:10141800FB78002B06D00949084B5A697B681343AF
:101428004B6106E00549054B5A697B68DB4313406D
:101438004B610C37BD465DF8047B704700380240AD
:1014480080B483B000AF78600B46FB70FB78002B4C
:1014580006D00949084B9A697B6813438B6106E0FB
:101468000549054B9A697B68DB4313408B610C3750
:10147800BD465DF8047B70470038024080B483B0F5
:1014880000AF78600B46FB70FB78002B06D009494B
:10149800084B1A6A7B6813430B6206E00549054B43
:1014A8001A6A7B68DB4313400B620C37BD465DF854
:1014B800047B70470038024080B483B000AF786086
:1014C8000B46FB70FB78002B06D00949084B5A6A7B
:1014D8007B6813434B6206E00549054B5A6A7B68F3
:1014E800DB4313404B620C37BD465DF8047B704705
:1014F8000038024080B483B000AF78600B46FB70C0
:10150800FB78002B06D00949084B1A6D7B681343FA
:101518000B6506E00549054B1A6D7B68DB431340F4
:101528000B650C37BD465DF8047B704700380240F8
:1015380080B483B000AF78600B46FB70FB78002B5B
:1015480006D00949084B5A6D7B6813434B6506E082
:101558000549054B5A6D7B68DB4313404B650C37D7
:10156800BD465DF8047B70470038024080B483B004
:1015780000AF78600B46FB70FB78002B06D009495A
:10158800084B9A6D7B6813438B6506E00549054B4C
:101598009A6D7B68DB4313408B650C37BD465DF85D
:1015A800047B70470038024080B483B000AF786095
:1015B8000B46FB70FB78002B06D00949084B1A6EC6
:1015C8007B6813430B6606E00549054B1A6E7B687A
:1015D800DB4313400B660C37BD465DF8047B704750
:1015E8000038024080B483B000AF78600B46FB70CF
:1015F800FB78002B06D00949084B5A6E7B681343C9
:101608004B6606E00549054B5A6E7B68DB43134081
:101618004B660C37BD465DF8047B704700380240C6
:1016280080B483B000AF03460A46FB711346BB7112
:10163800BB79002B08D00C490B4B1B78DAB2FB792D
:101648001343DBB20B7009E00749074B1B78DAB28A
:10165800FB79DB43DBB21340DBB20B700C37BD46C2
:101668005DF8047B704700BF0D38024080B487B036
:1016780000AF0346FB710023FB6000237B6100235E
:10168800FB74FB795B09DBB2FB60FB68012B03D1C0
:10169800124B1B687B6109E0FB68022B03D10F4BDF
:1016A8001B6F7B6102E00D4B5B6F7B61FB7903F085
:1016B8001F03FB60FB687A6922FA03F303F0010356
:1016C800002B02D00123FB7401E00023FB74FB7C98
:1016D80018461C37BD465DF8047B70470038024049
:1016E80080B400AF044A044B5B6F43F080735367C8
:1016F800BD465DF8047B70470038024080B485B071
:1017080000AF0346FB710023FB73094BDA68FB79D2
:101718001340002B02D00123FB7301E00023FB736D
:10172800FB7B18461437BD465DF8047B704700BF45
:101738000038024080B483B000AF0346FB71044A0E
:10174800FB7913700C37BD465DF8047B704700BF0A
:101758000E38024080B500AF4FF480400121FFF7FA
:10176800ABFE4FF480400021FFF7A6FE80BD00BF0E
:1017780080B483B000AF0346FB71044AFB79136061
:101788000C37BD465DF8047B704700BF0038014048
:1017980090B484B000AF03460A46FB711346BB7190
:1017A8000023FB60BB7903F003039B000F2202FABE
:1017B80003F3FB601649BB799B08DBB21846144A51
:1017C800BB799B08DBB2023352F82320FB68DB436A
:1017D8001A40831C41F823200D48BB799B08DBB2D3
:1017E8001C460B4ABB799B08DBB2023352F8232014
:1017F800F979BB7903F003039B0001FA03F31A4359
:10180800A31C40F823201037BD4690BC704700BF8A
:101818000038014080B483B000AF7860034A7B6829
:1018280013600C37BD465DF8047B7047DC00274227
:1018380080B483B000AF0346FB71044AFB791360A0
:101848000C37BD465DF8047B704700BF0004274293
:1018580080B483B000AF0023FB71094B1B6A03F40B
:101868008073002B02D00123FB7101E00023FB7180
:10187800FB7918460C37BD465DF8047B704700BFFE
:101888000038014080B582B000AF78607B685F4A5D
:10189800934208D101200121FFF70EFE012000210B
:1018A800FFF70AFEAFE07B68B3F1804F08D1012053
:1018B8000121FFF7E3FD01200021FFF7DFFDA2E092
:1018C8007B68534A934208D102200121FFF7D6FDD5
:1018D80002200021FFF7D2FD95E07B684D4A934234
:1018E80008D104200121FFF7C9FD04200021FFF7DA
:1018F800C5FD88E07B68484A934208D10820012149
:10190800FFF7BCFD08200021FFF7B8FD7BE07B68EE
:10191800424A934208D110200121FFF7AFFD102061
:101928000021FFF7ABFD6EE07B683D4A934208D18A
:1019380020200121FFF7A2FD20200021FFF79EFDB6
:1019480061E07B68374A934208D102200121FFF702
:10195800B3FD02200021FFF7AFFD54E07B68324A57
:1019680093420AD14FF480300121FFF7A5FD4FF4CF
:1019780080300021FFF7A0FD45E07B682B4A9342A9
:101988000AD14FF400300121FFF796FD4FF40030E3
:101998000021FFF791FD36E07B68254A93420AD182
:1019A8004FF480200121FFF787FD4FF480200021AC
:1019B800FFF782FD27E07B681E4A934208D140204A
:1019C8000121FFF75BFD40200021FFF757FD1AE0DA
:1019D8007B68194A934208D180200121FFF74EFD08
:1019E80080200021FFF74AFD0DE07B68134A9342EF
:1019F80009D14FF480700121FFF740FD4FF480704A
:101A08000021FFF73BFD0837BD4680BD00000140BF
:101A18000004004000080040000C00400010004096
:101A2800001400400004014000400140004401400F
:101A38000048014000180040001C00400020004001
:101A480080B485B000AF786039600023FB817B6883
:101A58001B88FB817B68284A934213D07B68274AFE
:101A680093420FD07B68B3F1804F0BD07B68244A38
:101A7800934207D07B68234A934203D07B68224A6B
:101A8800934208D1FB8923F07003FB813B685A8895
:101A9800FB891343FB817B681C4A93420CD07B680B
:101AA8001B4A934208D0FB8923F44073FB813B68AF
:101AB8001A89FB891343FB817B68FA891A803B6882
:101AC8005A687B68DA623B681A887B681A857B6883
:101AD800094A934203D07B68084A934204D13B6881
:101AE8009B7A9AB27B681A867B6801229A8214379D
:101AF800BD465DF8047B70470000014000040140CA
:101B08000004004000080040000C004000100040A5
:101B18000014004080B483B000AF78607B684FF059
:101B2800FF325A607B6800221A807B6800221A8183
:101B38007B6800225A807B6800229A720C37BD4667
:101B48005DF8047B704700BF80B483B000AF786055
:101B58000B467B8013463B807B687A881A857B68B6
:101B68003A889A820C37BD465DF8047B704700BFFF
:101B780080B485B000AF78600B467B800023FB8182
:101B88007B681B88FB81FB8923F07003FB81FA8942
:101B98007B881343FB817B68FA891A801437BD461A
:101BA8005DF8047B704700BF80B483B000AF7860F5
:101BB80039607B683A685A620C37BD465DF8047B29
:101BC800704700BF80B483B000AF786039607B682D
:101BD8003A68DA620C37BD465DF8047B704700BF8F
:101BE80080B483B000AF78607B685B6A18460C37B6
:101BF800BD465DF8047B704780B483B000AF786061
:101C08007B681B8D9BB218460C37BD465DF8047B7C
:101C1800704700BF80B483B000AF78600B46FB709C
:101C2800FB78002B08D07B681B889BB243F002032B
:101C38009AB27B681A8007E07B681B889BB223F006
:101C480002039AB27B681A800C37BD465DF8047BA4
:101C5800704700BF80B483B000AF78600B467B80CC
:101C68007B88002B08D07B681B889BB243F0040359
:101C78009AB27B681A8007E07B681B889BB223F0C6
:101C880004039AB27B681A800C37BD465DF8047B62
:101C9800704700BF80B483B000AF78600B46FB701C
:101CA800FB78002B08D07B681B889BB243F080032D
:101CB8009AB27B681A8007E07B681B889BB223F086
:101CC80080039AB27B681A800C37BD465DF8047BA6
:101CD800704700BF80B483B000AF78600B467B804C
:101CE8007B681B889BB223F008039AB27B681A8032
:101CF8007B681B889AB27B8813439AB27B681A80E8
:101D08000C37BD465DF8047B704700BF80B483B0D4
:101D180000AF78600B467B807B681B889BB223F4FE
:101D280040739AB27B681A807B681B889AB27B885A
:101D380013439AB27B681A800C37BD465DF8047B62
:101D4800704700BF80B483B000AF78600B46FB706B
:101D5800FB78002B08D07B681B889BB243F00103FB
:101D68009AB27B681A8007E07B681B889BB223F0D5
:101D780001039AB27B681A800C37BD465DF8047B74
:101D8800704700BF80B485B000AF78603960002329
:101D98007B810023FB810023BB817B681B8C9BB26A
:101DA80023F001039AB27B681A847B681B8CFB8141
:101DB8007B689B88BB817B681B8B7B817B8923F03D
:101DC80070037B817B8923F003037B813B681A883E
:101DD8007B8913437B81FB8923F00203FB813B68EA
:101DE8009A89FB891343FB813B685A88FB89134313
:101DF800FB817B681E4A934203D07B681D4A93424D
:101E080023D1FB8923F00803FB813B68DA89FB892E
:101E18001343FB81FB8923F00403FB813B689A8809
:101E2800FB891343FB81BB8923F48073BB81BB8986
:101E380023F40073BB813B681A8ABB891343BB81B7
:101E48003B685A8ABB891343BB817B68BA899A80ED
:101E58007B687A891A833B689A687B685A637B68CF
:101E6800FA891A841437BD465DF8047B704700BFB1
:101E7800000001400004014080B485B000AF7860E4
:101E8800396000237B810023FB810023BB817B68B1
:101E98001B8C9BB223F010039AB27B681A847B6870
:101EA8001B8CFB817B689B88BB817B681B8B7B8140
:101EB8007B8923F4E0437B817B8923F440737B8116
:101EC8003B681B881B029AB27B8913437B81FB8981
:101ED80023F02003FB813B689B891B019AB2FB8995
:101EE8001343FB813B685B881B019AB2FB89134350
:101EF800FB817B68224A934203D07B68214A934244
:101F08002BD1FB8923F08003FB813B68DB891B0114
:101F18009AB2FB891343FB81FB8923F04003FB81C1
:101F28003B689B881B019AB2FB891343FB81BB89E1
:101F380023F48063BB81BB8923F40063BB813B68C6
:101F48001B8A9B009AB2BB891343BB813B685B8A9F
:101F58009B009AB2BB891343BB817B68BA899A807C
:101F68007B687A891A833B689A687B689A637B687E
:101F7800FA891A841437BD465DF8047B704700BFA0
:101F8800000001400004014080B485B000AF7860D3
:101F9800396000237B810023FB810023BB817B68A0
:101FA8001B8C9BB223F480739AB27B681A847B687B
:101FB8001B8CFB817B689B88BB817B689B8B7B81AF
:101FC8007B8923F070037B817B8923F003037B816A
:101FD8003B681A887B8913437B81FB8923F4007350
:101FE800FB813B689B891B029AB2FB891343FB81E7
:101FF8003B685B881B029AB2FB891343FB817B68B1
:10200800224A934203D07B68214A93422BD1FB8911
:1020180023F40063FB813B68DB891B029AB2FB89CE
:102028001343FB81FB8923F48063FB813B689B8816
:102038001B029AB2FB891343FB81BB8923F48053AB
:10204800BB81BB8923F40053BB813B681B8A1B01FE
:102058009AB2BB891343BB813B685B8A1B019AB266
:10206800BB891343BB817B68BA899A807B687A896C
:102078009A833B689A687B68DA637B68FA891A8472
:102088001437BD465DF8047B704700BF000001406F
:102098000004014080B485B000AF78603960002347
:1020A800BB8100237B810023FB817B681B8C9BB257
:1020B80023F480539AB27B681A847B681B8C7B81DB
:1020C8007B689B88FB817B689B8BBB81BB8923F4E6
:1020D800E043BB81BB8923F44073BB813B681B8809
:1020E8001B029AB2BB891343BB817B8923F400533B
:1020F8007B813B689B891B039AB27B8913437B8155
:102108003B685B881B039AB27B8913437B817B689E
:10211800114A934203D07B68104A93420AD1FB8943
:1021280023F48043FB813B681B8A9B019AB2FB899D
:102138001343FB817B68FA899A807B68BA899A8302
:102148003B689A687B681A647B687A891A841437B2
:10215800BD465DF8047B7047000001400004014063
:1021680080B483B000AF78607B6800221A807B68F7
:1021780000225A807B6800229A807B6800229A603D
:102188007B6800229A817B680022DA817B680022C2
:102198001A827B6800225A820C37BD465DF8047BA0
:1021A800704700BF80B485B000AF78600B467B8075
:1021B80013463B800023FB6000237B817B68FB6028
:1021C800FB681833FB607B88012202FA03F37B81EA
:1021D8007B681B8C9AB27B89DB439BB213409AB213
:1021E8007B681A847B88002B02D07B88082B14D14B
:1021F8007B885B089BB21A46FB681344FB60FA684D
:10220800FB6819684FF68F730B401360FB68FA6818
:1022180011683A880A431A6017E07B88043B9BB22E
:102228005B089BB21A46FB681344FB60FA68FB68BC
:10223800196848F6FF730B401360FB68FA68126868
:102248003988090289B20A431A601437BD465DF815
:10225800047B704780B483B000AF786039607B68D6
:102268003A685A630C37BD465DF8047B704700BF77
:1022780080B483B000AF786039607B683A689A634D
:102288000C37BD465DF8047B704700BF80B483B04F
:1022980000AF786039607B683A68DA630C37BD460E
:1022A8005DF8047B704700BF80B483B000AF7860EE
:1022B80039607B683A681A640C37BD465DF8047B60
:1022C800704700BF80B485B000AF78600B467B8054
:1022D8000023FB817B681B8BFB81FB8923F0700348
:1022E800FB81FA897B881343FB817B68FA891A830F
:1022F8001437BD465DF8047B704700BF80B485B0D5
:1023080000AF78600B467B800023FB817B681B8BCA
:10231800FB81FB8923F4E043FB817B881B029AB293
:10232800FB891343FB817B68FA891A831437BD46FE
:102338005DF8047B704700BF80B485B000AF78605B
:102348000B467B800023FB817B689B8BFB81FB8991
:1023580023F07003FB81FA897B881343FB817B6838
:10236800FA899A831437BD465DF8047B704700BF2D
:1023780080B485B000AF78600B467B800023FB817A
:102388007B689B8BFB81FB8923F4E043FB817B8883
:102398001B029AB2FB891343FB817B68FA899A83F3
:1023A8001437BD465DF8047B704700BF80B485B024
:1023B80000AF78600B467B800023FB817B681B8B1A
:1023C800FB81FB8923F00803FB81FA897B8813438F
:1023D800FB817B68FA891A831437BD465DF8047B54
:1023E800704700BF80B485B000AF78600B467B8033
:1023F8000023FB817B681B8BFB81FB8923F4006333
:10240800FB817B881B029AB2FB891343FB817B68A3
:10241800FA891A831437BD465DF8047B704700BFFC
:1024280080B485B000AF78600B467B800023FB81C9
:102438007B689B8BFB81FB8923F00803FB81FA896E
:102448007B881343FB817B68FA899A831437BD46DE
:102458005DF8047B704700BF80B485B000AF78603A
:102468000B467B800023FB817B689B8BFB81FB8970
:1024780023F40063FB817B881B029AB2FB89134318
:10248800FB817B68FA899A831437BD465DF8047B23
:10249800704700BF80B485B000AF78600B467B8082
:1024A8000023FB817B681B8BFB81FB8923F00403E2
:1024B800FB81FA897B881343FB817B68FA891A833D
:1024C8001437BD465DF8047B704700BF80B485B003
:1024D80000AF78600B467B800023FB817B681B8BF9
:1024E800FB81FB8923F48063FB817B881B029AB202
:1024F800FB891343FB817B68FA891A831437BD462D
:102508005DF8047B704700BF80B485B000AF786089
:102518000B467B800023FB817B689B8BFB81FB89BF
:1025280023F00403FB81FA897B881343FB817B68D2
:10253800FA899A831437BD465DF8047B704700BF5B
:1025480080B485B000AF78600B467B800023FB81A8
:102558007B689B8BFB81FB8923F48063FB817B88F1
:102568001B029AB2FB891343FB817B68FA899A8321
:102578001437BD465DF8047B704700BF80B485B052
:1025880000AF78600B467B800023FB817B681B8B48
:10259800FB81FB8923F08003FB81FA897B88134345
:1025A800FB817B68FA891A831437BD465DF8047B82
:1025B800704700BF80B485B000AF78600B467B8061
:1025C8000023FB817B681B8BFB81FB89C3F30E0314
:1025D800FB817B881B029AB2FB891343FB817B68D2
:1025E800FA891A831437BD465DF8047B704700BF2B
:1025F80080B485B000AF78600B467B800023FB81F8
:102608007B689B8BFB81FB8923F08003FB81FA8924
:102618007B881343FB817B68FA899A831437BD460C
:102628005DF8047B704700BF80B485B000AF786068
:102638000B467B800023FB817B689B8BFB81FB899E
:10264800C3F30E03FB817B881B029AB2FB891343F9
:10265800FB817B68FA899A831437BD465DF8047B51
:10266800704700BF80B485B000AF78600B467B80B0
:102678000023FB817B681B8CFB81FB8923F0020311
:10268800FB81FA897B881343FB817B68FA891A846A
:102698001437BD465DF8047B704700BF80B485B031
:1026A80000AF78600B467B800023FB817B681B8C26
:1026B800FB81FB8923F00803FB81FA897B8813439C
:1026C800FB817B68FA891A841437BD465DF8047B60
:1026D800704700BF80B485B000AF78600B467B8040
:1026E8000023FB817B681B8CFB81FB8923F0200383
:1026F800FB817B881B019AB2FB891343FB817B68B2
:10270800FA891A841437BD465DF8047B704700BF08
:1027180080B485B000AF78600B467B800023FB81D6
:102728007B681B8CFB81FB8923F08003FB817B8802
:102738001B019AB2FB891343FB817B68FA891A84CF
:102748001437BD465DF8047B704700BF80B485B080
:1027580000AF78600B467B800023FB817B681B8C75
:10276800FB81FB8923F40073FB817B881B029AB2EF
:10277800FB891343FB817B68FA891A841437BD46A9
:102788005DF8047B704700BF80B485B000AF786007
:102798000B467B800023FB817B681B8CFB81FB89BC
:1027A80023F40063FB817B881B029AB2FB891343E5
:1027B800FB817B68FA891A841437BD465DF8047B6F
:1027C800704700BF80B485B000AF78600B467B804F
:1027D8000023FB817B681B8CFB81FB8923F400535E
:1027E800FB817B881B039AB2FB891343FB817B68BF
:1027F800FA891A841437BD465DF8047B704700BF18
:1028080080B485B000AF78600B467B8013463B8070
:102818000023FB817B88012202FA03F3FB817B689A
:102828001B8C9AB2FB89DB439BB213409AB27B683C
:102838001A847B681B8C9AB239887B8801FA03F367
:102848009BB213439AB27B681A841437BD465DF86D
:10285800047B704780B485B000AF78600B467B80FE
:1028680013463B800023FB817B88042202FA03F392
:10287800FB817B681B8C9AB2FB89DB439BB21340BC
:102888009AB27B681A847B681B8C9AB239887B88D9
:1028980001FA03F39BB213439AB27B681A84143784
:1028A800BD465DF8047B704780B582B000AF7860A4
:1028B80039603B681B88002B0FD13B6859883B68FF
:1028C8009A883B681B89786800F0B0FC3B68DB8815
:1028D8007868194600F0E0F836E03B681B88042B5E
:1028E8000FD13B6859883B689A883B681B89786890
:1028F80000F0DEFC3B68DB887868194600F0E8F8F1
:1029080022E03B681B88082B0FD13B6859883B683D
:102918009A883B681B89786800F016FD3B68DB885D
:102928007868194600F0F2F80EE03B6859883B6871
:102938009A883B681B89786800F04EFD3B68DB8805
:102948007868194600F0FEF80837BD4680BD00BF1C
:1029580080B483B000AF78607B6800221A807B68FF
:1029680000225A807B6801229A807B680022DA80E4
:102978007B6800221A810C37BD465DF8047B7047DE
:1029880080B584B000AF786039600023FB810123F3
:10299800BB813B685B88002B02D10223FB8101E0ED
:1029A8000023FB813B689B88012B02D10223BB815A
:1029B80001E00123BB813B681B88002B1CD13B68CD
:1029C80059883B689A883B681B89786800F02EFC18
:1029D8003B68DB887868194600F05EF83B681B891D
:1029E800F989BA89786800F063FC3B68DB88786805
:1029F800194600F06DF81BE03B6859883B689A88D7
:102A08003B681B89786800F053FC3B68DB88786872
:102A1800194600F05DF83B681B89F989BA8978681E
:102A280000F004FC3B68DB887868194600F034F84D
:102A38001037BD4680BD00BF80B483B000AF78605A
:102A48007B685B6B18460C37BD465DF8047B7047A6
:102A580080B483B000AF78607B689B6B18460C37F6
:102A6800BD465DF8047B704780B483B000AF7860E2
:102A78007B68DB6B18460C37BD465DF8047B7047F6
:102A880080B483B000AF78607B681B6C18460C3745
:102A9800BD465DF8047B704780B483B000AF7860B2
:102AA8000B467B807B681B8B9BB223F00C039AB28E
:102AB8007B681A837B681B8B9AB27B8813439AB214
:102AC8007B681A830C37BD465DF8047B704700BFEE
:102AD80080B483B000AF78600B467B807B681B8B2B
:102AE8009BB223F440639AB27B681A837B681B8B82
:102AF8009AB27B881B029BB213439AB27B681A83F3
:102B08000C37BD465DF8047B704700BF80B483B0C6
:102B180000AF78600B467B807B689B8B9BB223F071
:102B28000C039AB27B689A837B689B8B9AB27B88EA
:102B380013439AB27B689A830C37BD465DF8047BD1
:102B4800704700BF80B483B000AF78600B467B80CD
:102B58007B689B8B9BB223F440639AB27B689A8311
:102B68007B689B8B9AB27B881B029BB213439AB2F9
:102B78007B689A830C37BD465DF8047B704700BFBD
:102B880080B483B000AF786039603B681A883B68CE
:102B98005B8813439AB23B689B8813439AB23B689D
:102BA800DB8813439AB23B681B8913439AB23B688C
:102BB8005B8913439AB23B689B8913439AB27B683B
:102BC800A3F844200C37BD465DF8047B704700BF6E
:102BD80080B483B000AF78607B6800221A807B687D
:102BE80000225A807B6800229A807B680022DA8063
:102BF8007B6800221A817B6800225A817B68002248
:102C08009A810C37BD465DF8047B704780B483B069
:102C180000AF78600B46FB70FB78002B0CD07B680C
:102C2800B3F844309BB26FEA43436FEA53439AB216
:102C38007B68A3F8442009E07B68B3F844309BB272
:102C4800C3F30E039AB27B68A3F844200C37BD4641
:102C58005DF8047B704700BF80B483B000AF786034
:102C68000B46FB70FB78002B08D07B689B889BB2D7
:102C780043F004039AB27B689A8007E07B689B88DC
:102C88009BB223F004039AB27B689A800C37BD4646
:102C98005DF8047B704700BF80B483B000AF7860F4
:102CA8000B46FB70FB78002B08D07B689B889BB297
:102CB80043F001039AB27B689A8007E07B689B889F
:102CC8009BB223F001039AB27B689A800C37BD4609
:102CD8005DF8047B704700BF80B483B000AF7860B4
:102CE8000B467B8013467B707B78002B08D07B6873
:102CF8009B899AB27B8813439AB27B689A8109E0D0
:102D08007B689B899AB27B88DB439BB213409AB25B
:102D18007B689A810C37BD465DF8047B704700BF1D
:102D280080B483B000AF78600B467B807B687A887C
:102D38009A820C37BD465DF8047B704780B485B035
:102D480000AF78600B467B800023FB737B681B8A8F
:102D58009AB27B8813409BB2002B02D00123FB73ED
:102D680001E00023FB73FB7B18461437BD465DF872
:102D7800047B704780B483B000AF78600B467B80DB
:102D88007B88DB439AB27B681A820C37BD465DF8B4
:102D9800047B704780B485B000AF78600B467B80B9
:102DA8000023FB730023BB8100237B817B681B8A84
:102DB8009AB27B881340BB817B689B899AB27B88D7
:102DC80013407B81BB89002B05D07B89002B02D067
:102DD8000123FB7301E00023FB73FB7B18461437C8
:102DE800BD465DF8047B704780B483B000AF78605F
:102DF8000B467B807B88DB439AB27B681A820C3750
:102E0800BD465DF8047B704780B483B000AF78603E
:102E18000B467B8013463B807A883B8813439AB2E3
:102E28007B68A3F848200C37BD465DF8047B7047E3
:102E380080B483B000AF78600B467B8013467B700C
:102E48007B78002B08D07B689B899AB27B881343D8
:102E58009AB27B689A8109E07B689B899AB27B88E1
:102E6800DB439BB213409AB27B689A810C37BD460C
:102E78005DF8047B704700BF80B483B000AF786012
:102E88000B46FB70FB78002B08D07B689B889BB2B5
:102E980043F008039AB27B689A8007E07B689B88B6
:102EA8009BB223F008039AB27B689A800C37BD4620
:102EB8005DF8047B704700BF80B483B000AF7860D2
:102EC8007B681B899BB223F007039AB27B681A813F
:102ED8000C37BD465DF8047B704700BF80B582B0F3
:102EE80000AF78600B467B807B887868194600F0D5
:102EF80087F87B681B899BB243F007039AB27B680B
:102F08001A810837BD4680BD80B584B000AFF8602F
:102F1800084611461A4603467B810B463B811346F9
:102F2800FB807B89602B07D13A89FB88F8681146BA
:102F3800012200F0BDF906E03A89FB88F8681146DD
:102F4800012200F073F97B89F868194600F058F8F7
:102F5800FB681B899BB243F007039AB2FB681A818E
:102F68001037BD4680BD00BF80B586B000AFF860A1
:102F7800084611461A4603467B810B463B81134699
:102F8800FB800023FB8279893A89FB88F86800F086
:102F9800A7F8FB681B89FB82FB8A23F00703FB82E7
:102FA800FB8A43F00703FB82FB8A23F07003FB8252
:102FB800FB8A43F07003FB82FB68FA8A1A81183790
:102FC800BD4680BD80B584B000AFF86008461146A4
:102FD8001A4603467B810B463B811346FB80798961
:102FE8003A89FB88F86800F07BF8FB681B899BB27C
:102FF80043F480439AB2FB681A811037BD4680BDFE
:1030080080B485B000AF78600B467B800023FB81DD
:103018007B681B89FB81FB8923F07003FB81FA899C
:103028007B881343FB817B68FA891A811437BD4674
:103038005DF8047B704700BF80B483B000AF786050
:103048000B467B807B689B889BB223F070039AB207
:103058007B689A807B689B889AB27B8813439AB274
:103068007B689A800C37BD465DF8047B704700BFCB
:1030780080B483B000AF78600B467B807B681B8987
:103088009BB223F007039AB27B681A817B681B897D
:103098009AB27B8813439AB27B681A810C37BD4673
:1030A8005DF8047B704700BF80B483B000AF7860E0
:1030B8000B467B807B681B899BB223F080039AB206
:1030C8007B681A817B681B899AB27B8813439AB202
:1030D8007B681A810C37BD465DF8047B704700BFDA
:1030E80080B487B000AFF860084611461A46034618
:1030F8007B810B463B811346FB800023FB82FB68E8
:103108001B89FB82FB8ADBB2FB82FB881B029AB21B
:103118003B8913439AB27B8913439AB2FB8A1343C0
:10312800FB82FB68FA8A1A811C37BD465DF8047B6E
:10313800704700BF80B487B000AFF86008461146FA
:103148001A4603467B810B463B811346FB800023CE
:10315800FB820023BB8200237B82FB681B89FB82E6
:10316800FB681B8BBB82FB681B8C7B82FB8A23F072
:103178000703FB82FA8A7B891343FB82BB8A23F409
:10318800407323F00303BB82BB8A43F4807343F08C
:103198000103BB827B8A23F022037B82FB881B010D
:1031A8009AB23B8913439AB27B8A13437B82FB68AA
:1031B800FA8A1A81FB68BA8A1A83FB687A8A1A849F
:1031C8001C37BD465DF8047B704700BF80B483B0F0
:1031D80000AF78600B46FB70FB78002B08D07B684B
:1031E8009B889BB243F080039AB27B689A8007E081
:1031F8007B689B889BB223F080039AB27B689A8095
:103208000C37BD465DF8047B704700BF80B483B0BF
:1032180000AF78600B467B807B687A88A3F85020E3
:103228000C37BD465DF8047B704700BF80B487B09B
:1032380000AFF860084611461A4603467B810B46E4
:103248003B811346FB800023FB820023BB82FB6883
:103258001B8C9BB223F001039AB2FB681A84FB68AB
:103268001B8BFB82FB681B8CBB82FB8A23F0F3035E
:10327800FB82FB881B019AB23B8913439AB2FB8AF3
:103288001343FB82BB8A23F00A03BB827A89BB8A79
:1032980013439BB243F00103BB82FB68FA8A1A838B
:1032A800FB68BA8A1A841C37BD465DF8047B7047F0
:1032B80080B487B000AFF860084611461A46034646
:1032C8007B810B463B811346FB800023FB82002356
:1032D800BB8200237B82FB681B8C9BB223F010030C
:1032E8009AB2FB681A84FB681B8BFB82FB681B8CF9
:1032F800BB827B891B017B82FB8A23F440731B05FD
:103308001B0DFB82FB881B039AB2FB8A1343FB82CB
:103318003B891B029AB2FB8A1343FB82BB8A23F0C8
:10332800A003BB827A8ABB8A13439BB243F0100383
:10333800BB82FB68FA8A1A83FB68BA8A1A841C372C
:10334800BD465DF8047B704780B487B000AFF86075
:10335800084611461A4603467B810B463B811346B5
:10336800FB800023FB820023BB8200237B82FB6857
:103378001B8C9BB223F480739AB2FB681A84FB6897
:103388009B8BFB82FB681B8CBB827B891B027B822D
:10339800FB8A23F0F303FB82FB881B019AB23B896B
:1033A80013439AB2FB8A1343FB82BB8A23F420633C
:1033B800BB827A8ABB8A13439BB243F48073BB8275
:1033C800FB68FA8A9A83FB68BA8A1A841C37BD4656
:1033D8005DF8047B704700BF80B487B000AFF86029
:1033E800084611461A4603467B810B463B81134625
:1033F800FB800023FB820023BB8200237B82FB68C7
:103408001B8C9BB223F480539AB2FB681A84FB6826
:103418009B8BFB82FB681B8CBB827B891B037B829B
:10342800FB8A23F440731B051B0DFB823B891B029F
:103438009AB2FB8A1343FB82FB881B039AB2FB8A6E
:103448001343FB82BB8A23F400535B045B0CBB82EF
:103458007A8ABB8A13439BB243F48053BB82FB68CE
:10346800FA8A9A83FB68BA8A1A841C37BD465DF8C3
:10347800047B704780B483B000AF7860054A7B68EE
:1034880043F0BF6343F40033D3600C37BD465DF8A7
:10349800047B704700ED00E080B485B000AF786031
:1034A8000023FB730023BB730F237B737B68DB78DC
:1034B800002B38D0264BDB68DB4303F4E0631B0AA0
:1034C800FB73FB7BC3F10403BB737A7BFB7B42FA80
:1034D80003F37B737B685B781A46BB7B02FA03F3C2
:1034E800FB737B689A787B7B1340DAB2FB7B1343D0
:1034F800FB73FB7B1B01FB73164A7B681B78134429
:10350800FA7B83F80023134A7B681B785B09DBB2DC
:1035180018467B681B7803F01F03012101FA03F3A7
:1035280042F820300FE00B497B681B785B09DBB25F
:1035380018467B681B7803F01F0301229A4000F1AC
:10354800200341F823201437BD465DF8047B7047FB
:1035580000ED00E000E100E080B483B000AF7860E7
:10356800396007493B6823F0604323F07F037A689A
:1035780013438B600C37BD465DF8047B704700BF72
:1035880000ED00E080B483B000AF03460A46FB714B
:103598001346BB71BB79002B06D00949084B1A6941
:1035A800FB7913430B6106E00549054B1A69FB7962
:1035B800DB4313400B610C37BD465DF8047B704755
:1035C80000ED00E080B483B000AF78607B68042B26
:1035D80006D1094A084B1B6843F00403136005E051
:1035E800054A054B1B6823F0040313600C37BD46DE
:1035F8005DF8047B704700BF10E000E080B584B040
:1036080000AF0346FB71FB79104A52F82330184685
:103618000121FDF743FEFB790D4A32F81330BB60F8
:1036280001233B730023BB730123FB7302237B73CA
:10363800FB79084A52F8232007F108031046194677
:10364800FDF792F91037BD4680BD00BF085000084D
:10365800005000083801002080B483B000AF034652
:10366800FB71FB79064A52F82330FA79054931F89B
:1036780012201A830C37BD465DF8047B704700BFE3
:10368800380100200050000880B483B000AF034622
:10369800FB71FB79064A52F82330FA79054931F86B
:1036A80012205A830C37BD465DF8047B704700BF73
:1036B800380100200050000880B483B000AF0346F2
:1036C800FB71FB79094A52F82330FA79074951F816
:1036D80022205269F979064830F811104A405A6197
:1036E8000C37BD465DF8047B704700BF38010020E9
:1036F8000050000880B588B000AF03460A46FB7149
:103708001346BB71012318460121FDF7C7FD4FF48D
:1037180080400121FDF73AFE00233B770023FB7729
:103728000123BB61FB79174A52F8232007F11803DC
:1037380010461946FDF718F9BB79012B1FD1002255
:10374800002310461946FEF723F801233B610023A6
:103758003B7508237B750123BB7507F110031846D9
:10376800FCF77EFF06233B730F237B730F23BB738A
:103778000123FB7307F10C031846FFF78DFE203772
:10378800BD4680BD4801002080B582B000AF034629
:10379800FB71FB79064A52F823300122184611467C
:1037A800FDF7ACF9034618460837BD4680BD00BF93
:1037B800480100206C5000080000002090090020FB
:1037C80094090020A40A002008B50021044600F04E
:1037D8008BF8044B1868C36B03B19847204601F077
:1037E80037FC00BF3450000870B50F4E0F4D761BE4
:1037F800B61018BF002405D0013455F8043B98478B
:10380800A642F9D10A4E0B4D761B01F015FCB610F5
:1038180018BF002406D0013455F8043B9847A64247
:10382800F9D170BD70BD00BF60500008605000083D
:10383800685000086050000870B4840746D0541ED1
:10384800002A41D0CDB2034602E0621EE4B314461A
:1038580003F8015B9A07F8D1032C2ED9CDB245EABB
:1038680005250F2C45EA054519D903F1100226460E
:10387800103E0F2E42F8105C42F80C5C42F8085CCF
:1038880042F8045C02F11002F2D8A4F1100222F00E
:103898000F0204F00F041032032C13440DD91E46F6
:1038A8002246043A032A46F8045BFAD8221F22F07B
:1038B80003020432134404F003042CB1C9B21C44BB
:1038C80003F8011BA342FBD170BC704714460346A2
:1038D800C2E700BF024B13B1024800F06FB870474F
:1038E80000000000D13900082DE9F04F314B83B0BA
:1038F8001B68009303F5A47381460E460193009B51
:10390800D3F8487127B3DDF804A07C68651E0ED48F
:10391800013407EB84044FF00008E6B1D4F8003115
:10392800B34218D0013D6B1CA4F10404F5D1224B1D
:1039380073B17B68002B36D13B68002B34D03846F6
:10394800CAF80030AFF30080DAF80070002FDCD13D
:1039580003B0BDE8F08F7B682268013BAB420CBF27
:103968007D60C4F80080002ADCD0D7F88831D7F809
:1039780004B00121A940194208D190477B685B45F2
:10398800BDD1DAF80030BB42CCD0B8E7D7F88C31DB
:10399800194204D14846D4F880109047EEE7D4F88D
:1039A80080009047EAE73B68BA461F46002FACD133
:1039B800CEE700BF34500008000000000146002098
:1039C8000246034600F016B838B5084B084DED1A04
:1039D800AC1018BFED1805D0013C55F8043D9847C8
:1039E800002CF9D1BDE8384001F02CBB6850000824
:1039F8006C5000082DE9F047254C2568D5F848415A
:103A08000646884692469946CCB360681F2818DC5B
:103A1800431C7EB104EB80050121C5F888A0D4F8C9
:103A2800887101FA00F21743022EC4F88871C5F8AC
:103A380008911ED00230636044F820800020BDE861
:103A4800F087144B03B34FF4C870AFF300800446FB
:103A5800D0B1D5F84831002780E88800C5F848413A
:103A680038460123C4F88871C4F88C71002EE1D05F
:103A7800D0E7D4F88C110A43C4F88C21DAE705F5AD
:103A8800A674C5F84841C0E74FF0FF30BDE8F0879D
:103A980034500008000000000B4B1B6810B50446AA
:103AA8000BB19A6B4AB1132C0CD8084850F8343033
:103AB800013307D000EBC40010BD184600F02EFCFF
:103AC800132CF2D9002010BD78050020C009002071
:103AD80070B500F035FB1324054600262046314614
:103AE800ABBE04464FF0FF302C6070BD2DE9F047A7
:103AF80084B0DFF89480CDF804800327002303976F
:103B08000124029301AE20463146ABBE81461B4DCF
:103B1800CDF8048004230397C5F80090029320464B
:103B28003146ABBE8246DFF86490CDF804800823A6
:103B38000397C9F800A0029320463146ABBE04465D
:103B48000F4BD9F800600F481C60621C04BF1E6050
:103B5800344600234FF0FF3140F833100133142B63
:103B6800084AF9D12B6813600023966014615360EA
:103B7800D360536104B0BDE8F08700BFB8090020E6
:103B8800BC090020C009002038500008B0090020F6
:103B980030B585B0062401900291039201AD20460C
:103BA8002946ABBE0446631C02D0204605B030BD92
:103BB800FFF78EFF05B030BD70B50E461546FFF70E
:103BC8006BFF044658B1314600682A46FFF7E0FF0C
:103BD800431C03D06368281A0344636070BD00F077
:103BE800AFFA092303604FF0FF3070BDF0B583B022
:103BF8000C461546FFF750FF0646002839D0022D1F
:103C080026D8012D21D0022D11D06F4633680A2500
:103C18008DE8180028463946ABBE05466B1C1ED0F9
:103C28002846002822DB7460204603B0F0BD02AFAE
:103C3800036847F8083D0C2528463946ABBE0546BB
:103C4800691C0FD028460444E0E74368E418DCD533
:103C580000F076FA162303604FF0FF30E5E7FFF730
:103C680037FFDEE7FFF734FF421CECD14FF0FF309F
:103C7800DBE700F065FA092303604FF0FF30D4E773
:103C8800FFF7B4BF30B585B00524019002910392C7
:103C980001AD20462946ABBE0446631C02D020462F
:103CA80005B030BDFFF714FF05B030BD70B50E4646
:103CB8001546FFF7F1FE0446E0B12A463146006892
:103CC800FFF7E0FF021E12DB6368A81A034495425F
:103CD800636000D070BD00F033FA13250646002457
:103CE80028462146ABBE05463560204670BD4FF0DC
:103CF800FF30EFE700F024FA092303604FF0FF30AC
:103D080070BD00BF30B583B002AD022445F8040D84
:103D180020462946ABBE0446631C02D0204603B0A9
:103D280030BDFFF7D5FE03B030BD00BF70B582B01F
:103D38000446FFF7B1FE064618B3013C012C11D921
:103D480002AD336845F8043D022420462946ABBE3F
:103D58000446631C10D0204610B94FF0FF3333607F
:103D680002B070BD0A4B9A681B699A42E8D14FF0BD
:103D7800FF3303600020F3E7FFF7AAFE0028EFD126
:103D8800EBE700F0DDF9092303604FF0FF30E7E7C8
:103D9800C0090020012070470E4A136810B5ABB166
:103DA80018446946884209D80B490C4C0968A14255
:103DB80001D0884202D81060184610BD00F0C0F942
:103DC8000C2303604FF0FF33184610BD044B1360FB
:103DD800E6E700BFB40900207C050020ADDEFECA7E
:103DE800A40A002070B50D46FFF756FE0646B0B18E
:103DF8006B684FF4806243F400536B60EA620C24F2
:103E080020463146ABBE0446621C03D020462861DA
:103E1800002070BDFFF75CFE431CF8D170BD00F0B8
:103E28008FF9092303604FF0FF3070BD38B50C4699
:103E38000546002120463C22FFF7FEFC2846214685
:103E4800BDE83840FFF7CEBF38B50D46044600211F
:103E58003C222846FFF7F0FC2046002100F012F82B
:103E6800431C04460BD06B6843F401436B6029463E
:103E7800FFF7B8FF05462046FFF758FF2C462046B7
:103E880038BD00BF2DE9F047324E90B082468846D3
:103E9800002456F834506B1C4FEAC4070CD0013488
:103EA800142CF6D100F04CF9182303604FF0FF35BD
:103EB800284610B0BDE8F08708F42063B3F5206FFA
:103EC8000DF104093BD040F20163C8F3004518F036
:103ED800020F08EA030318BF45F002050BB145F0CD
:103EE800040518F0080F18BF25F00403504618BF42
:103EF80043F00805CDF804A000F06EFD029503908C
:103F0800012528464946ABBE0546002D09DB374446
:103F180046F834502546002328467B6010B0BDE89B
:103F2800F08700F00DF9132406460027204639468D
:103F3800ABBE04462846346010B0BDE8F087494659
:103F48005046FFF781FF0130BDD000F0F9F811238A
:103F58000360ADE7C00900200EB400B50199FFF772
:103F680091FF5DF804EB03B0704700BF08B500F09F
:103F7800E7F8582303604FF0FF3008BDF0B583B071
:103F88000E24009000F028FD01906D462046294639
:103F9800ABBE0446631C02D0002003B0F0BD00F0A5
:103FA800CFF813250646002728463946ABBE0546F6
:103FB8002046356003B0F0BDF0B50C46054638B173
:103FC8001126002730463946ABBE064685E8C000B4
:103FD80014B10023236063600020F0BD30B51024C5
:103FE800002520462946ABBE0446204630BD00BF0A
:103FF80070B504461025002628463146ABBE054656
:104008001CB184E86000A660E660284670BD00BF69
:1040180070B5FFF741FD044690B1092528462146B1
:10402800ABBE0446012C09D000F08AF813250646D9
:10403800002428462146ABBE05463560204670BDA3
:1040480000F07EF809230360F8E700BFE8B130B557
:1040580083B01224009000F0BFFC01906D4620460A
:104068002946ABBE0446631C0BD0FF2C204606D85D
:104078002CB14000C0F3072301D0A342F9D103B00B
:1040880030BDFFF725FD0446EFE70120704700BF6C
:1040980030B585B00C46009000F09EFC019020469B
:1040A800029400F099FC0F2403906D46204629469F
:1040B800ABBE0446631C06D02046003018BF012062
:1040C800404205B030BDFFF703FDF6E74FF0FF3182
:1040D80000F000B8062930B50CBF044D044D182473
:1040E80020462946ABBE0446204630BD23000200C8
:1040F80026000200002103E00B4B5B5843500431BB
:104108000A480B4B42189A42F6D30A4A02E00023A7
:1041180042F8043B084B9A42F9D3FCF715F9FFF72C
:1041280063FBFCF7CFF870476C50000800000020D4
:104138009009002094090020A40A0020FEE700004E
:10414800014B1868704700BF7805002000207047B1
:1041580000207047014900F029B900BF894A0008CA
:104168002DE9F04F354B4568C3630024074600F539
:104178003B7204230321C0F8E412C0F8E822C0F817
:10418800E04283B02C606C60AC606C66EC812C61A2
:104198006C61AC61AB81214605F15C000822FFF738
:1041A8004BFBBE68DFF898B0DFF898A0DFF898906E
:1041B800DFF89880C5F820B001230922C5F824A0AB
:1041C800C5F82890C5F82C80ED612146F381B281AD
:1041D80006F15C0034607460B460746634617461C4
:1041E800B46108220193FFF727FBFD68F6611220EE
:1041F8000222C6F820B0C6F824A0C6F82890C6F84F
:104208002C802146A881EA812C606C60AC606C66C9
:104218002C616C61AC6105F15C000822FFF70CFBB6
:10422800019BED61C5F820B0C5F824A0C5F8289019
:10423800C5F82C80BB6303B0BDE8F08F5D41000872
:104248005949000881490008B9490008D9490008B6
:1042580070B568234D1E03FB05F50E4605F1740184
:1042680000F0CEF8044640B100210C30666005F13C
:1042780068022160A060FFF7DFFA204670BD00BF2A
:10428800204B70B51D68AB6B064613B92846FFF77F
:1042980067FF05F538756B68AC68013B05D521E00B
:1042A800013B5A1C04F168041CD0B4F90C20002A04
:1042B800F6D1002501234FF6FF72E281A3816566DE
:1042C8002560A560656025616561A561294604F1E1
:1042D8005C000822FFF7B0FA256365636564A5648E
:1042E800204670BD2B680BB11D46D4E7304604212B
:1042F800FFF7AEFF286008B10546CCE70C23336012
:1043080070BD00BF34500008024B0349186800F024
:104318004DB800BF34500008894A0008836B03B1C8
:104328007047FFF71DBF00BF704700BF704700BF51
:10433800704700BF704700BF024B0349186800F080
:104348000FB800BF7805002055410008024B03490B
:10435800186800F005B800BF78050020594100082A
:104368002DE9F04110F538771BD0884600267D6886
:10437800BC68013D0FD4A389012B05F1FF3506D98F
:10438800B4F90E300133204601D0C04706436B1CF8
:1043980004F16804EFD13F68002FE8D13046BDE84A
:1043A800F0813E463046BDE8F08100BF2DE9F84374
:1043B80010F538771FD0884606464FF000097D680B
:1043C800BC68013D11D4A389012B05F1FF3508D93B
:1043D800B4F90E3001332146304602D0C04749EACD
:1043E80000096B1C04F16804EDD13F68002FE6D189
:1043F8004846BDE8F883B9464846BDE8F88300BF9B
:104408002DE9F04F01F10B05162D83B0064627D98B
:1044180035F0070500F1B680A94200F2B38000F03C
:1044280081FAB5F5FC7F22D2C24FE80807EBC0033A
:10443800DC689C4200F0C8816368E168A56823F0E5
:104448000303234430465A68E96042F001028D6054
:104458005A6000F069FA0834204603B0BDE8F08FCE
:10446800102900F28F8000F05DFA1025DCE7680A59
:1044780000F08F80042800F25481A80938304100E8
:10448800AC4F07EB8101CC68A14206D10CE0002AB1
:1044980080F28280E468A14206D0636823F00303B7
:1044A8005A1B0F2AF3DD01380130A2493C6901F19A
:1044B800080E744500F07D81636823F003035A1BDE
:1044C8000F2A00F36381002AC1F814E0C1F810E054
:1044D80073DAB3F5007F80F03981DB0801EBC3089C
:1044E8004FEAA30C4A68D8F80890C4F8089001234A
:1044F80003FA0CF31343C4F80C804B60C8F8084067
:10450800C9F80C408210012494409C4262D823428E
:1045180006D120F003006400234200F10400FAD021
:1045280007EBC008C4468146DCF80C309C4507D12F
:1045380041E1002980F25181DB689C4500F03B8114
:104548005A6822F00302511B0F29F2DD1C46D3F8EA
:104558000CC054F8088F5A1945F0010941F00105BB
:10456800C3F804903046C8F80CC0CCF808807A61CB
:104578003A61C2F80CE0C2F808E05560515000F00A
:10458800D3F969E700240C232046336003B0BDE863
:10459800F08F7E213F2073E72344E1685A68A568BD
:1045A80042F00102E96030468D605A6000F0BCF9C3
:1045B8000834204603B0BDE8F08F234430465A68DB
:1045C80042F001025A6000F0AFF90834204603B007
:1045D800BDE8F08FBC68636823F00308454504D83C
:1045E800C5EB08030F2B00F38C80534BDFF858A161
:1045F8001A68DAF8003001332A4404EB080B00F09B
:10460800508102F580520F3222F47F6222F00F02AD
:1046180011463046019200F089F9B0F1FF3F81461A
:10462800019A00F04781834500F2EE80434B1968F8
:10463800CB451144196000F04281DAF80000DFF838
:1046480008E101301BBFCBEB090B5944CEF80090B1
:10465800196019F0070100F00781C1F10800C1F5E0
:104668008051814408314A44C2F30B02C2EB010A6B
:1046780051463046019300F059F9431C019B00F064
:104688002C81C9EB0002524442F001021968C7F8B4
:1046980008905144BC42C9F804201960DFF89CA076
:1046A80016D0B8F10F0F40F2EE806268A8F10C0343
:1046B80023F00703E01802F001024FF0050E1A4339
:1046C8000F2B6260C0F804E0C0F808E000F209812E
:1046D8001B4BBC681A68914288BF1960194B1A684D
:1046E8009142626888BF196022F003029542A2EBEA
:1046F800050301D80F2B04DC304600F015F900241F
:10470800AAE6621943F0010345F0010565603046E9
:10471800BA60536000F008F90834204603B0BDE8D9
:10472800F08F142868D9542800F29780280B6E302F
:104738004100A5E680050020680A00206C0A0020D8
:10474800640A0020600A00208C0900205A0A042A02
:1047580055D9142A00F2A7805B324FEA420C07EBC6
:104768008C0CDFF8BC81DCF8081061457FD04A6802
:1047780022F00302934202D289688C45F7D1CA68B5
:104788007B68E260A1609460CC60BBE6631942F08C
:10479800010745F00105656030464B610B61C3F8C0
:1047A8000CE0C3F808E05F609A50083400F0BCF8E9
:1047B80052E64B68A6E609F1010919F0030F0CF15E
:1047C800080C7FF4B1AE2CE004F108036469A3423D
:1047D80008BF02303FF469AE2EE61A441C46516801
:1047E800DB6854F8085F41F0010151603046EB6026
:1047F8009D6000F099F82FE65B30410040E69A0989
:1048080038324FEA420CAAE7BC42454B3FF40EAFA0
:104818009C68626822F0030268E7D8F8008098452F
:104828007CD110F0030FA8F1080300F1FF30F4D198
:104838007B6823EA04037B6064009C423FF6CAAEAF
:10484800002C3FF4C7AE234248467FF469AE6400AB
:10485800234200F10400FAD062E6B0F5AA7F18D826
:10486800E80B773041000BE64FF48051FBE6D8F8AF
:10487800043092104FF0010C0CFA02F21343C8F8FE
:1048880004300A467DE70123C9F804304C4600226B
:104898002CE740F2545398421CD8A80C7C304100B5
:1048A800EEE51032B4E6542A23D81A0B6E324FEADA
:1048B800420C54E7BC68626822F0030216E7CBF3A7
:1048C8000B0000287FF4B9AE4244BB6842F00102F5
:1048D8005A60FDE6FC217E20D2E501224FF0000A55
:1048E800D4E604F10801304600F034FADAF8001092
:1048F800EEE6B2F5AA7F04D8DA0B77324FEA420C1B
:104908002DE740F254518A4204D89A0C7C324FEA7F
:10491800420C24E74FF0FC0C7E2220E77B688BE7F3
:1049280080050020704700BF704700BF38B5074CAE
:104938000023054608462360FFF72EFA431C00D0E3
:1049480038BD2368002BFBD02B6038BDA00A00209F
:1049580010B50C46B1F90E1000F0E8FA002803DB98
:10496800236D0344236510BDA38923F48053A381D9
:1049780010BD00BF002070472DE9F04116468A8916
:104988001D46D3050C46074606D50022B1F90E1080
:10499800022300F0B7FAA289B4F90E1022F480526B
:1049A800A281384632462B46BDE8F04100F042B8B5
:1049B80010B50C46B1F90E1000F0A4FAA389421CF8
:1049C8000EBF23F4805343F480532065A38110BDA8
:1049D800B1F90E1000F042B820F0030110F0030006
:1049E800C0F1000051F8043B00F1040C4FEACC0C74
:1049F8006FF000021CBF22FA0CF213434FF0010CB7
:104A08004CEA0C2C4CEA0C4CA3EB0C0222EA0302F5
:104A180012EACC1204BF51F8043B0430F4D0C2F1BE
:104A2800000102EA0102B2FA82F2C2F11F0200EBAF
:104A3800D200704770B5084C064600250846114656
:104A48001A462560FFF732F9431C00D070BD236871
:104A5800002BFBD0336070BDA00A002038B5074C8E
:104A68000023054608462360FFF760F9431C00D081
:104A780038BD2368002BFBD02B6038BDA00A00206E
:104A880000293DD070B505460C4608B1836B7BB351
:104A9800B4F90C300BB9002070BD2846214600F04F
:104AA80039F8E36A064633B12846E1699847002891
:104AB800B8BF4FF0FF36A3891B061CD4216B41B148
:104AC80004F14003994202D0284600F043F900233C
:104AD8002363616C21B1284600F03CF9002363642C
:104AE800FFF722FC0023A381FFF720FC304670BDAE
:104AF800FFF714FCCCE72846216900F02BF9DDE725
:104B080000207047024B01461868FFF7B9BF00BF85
:104B1800780500208B899AB22DE9F0410D461107DE
:104B280080463CD46A6843F40063002AAB8165DDA3
:104B3800AE6A002E4BD09BB203F48052002192B291
:104B4800D8F80040C8F80010002A5BD02A6D5F072B
:104B580005D569682B6B521A0BB1EB6BD21A40461C
:104B6800E9690023B047461C56D0AB892A692A60F8
:104B780023F400639BB200226A60DA04AB813BD461
:104B8800296BC8F8004011B305F14003994202D0DF
:104B9800404600F0DFF800202863BDE8F0812E6968
:104BA800AEB12C682E6091070CBF6B690023A41B63
:104BB800AB600AE0324623466F6AE9694046B84767
:104BC8000028A4EB0004064404DD002CF2DC0020DD
:104BD800BDE8F081AB8943F04003AB814FF0FF3073
:104BE800BDE8F081AB892A69696023F400639BB250
:104BF800AB81DB042A60C3D52865C1E7EA6B002ACC
:104C080096DCE4E701234046E969B047431C0246C5
:104C180019D0AB89AE6A9AE7D8F800100029E1D01C
:104C28001D2907D0162905D0AB8943F04003AB8175
:104C3800BDE8F081AB892A692A6023F40063002269
:104C4800AB816A609CE7D8F80030002BE1D01D2BBF
:104C580007D0162B05D0AB8943F04003AB81BDE8E4
:104C6800F081C8F80040B2E710B5044682B008B138
:104C7800836B53B1B1F90C0008B902B010BD2046DE
:104C880002B0BDE81040FFF745BF0191FFF746FBB2
:104C98000199EFE720B1054B01461868FFF7E4BF1B
:104CA800034B04491868FFF781BB00BF7805002053
:104CB80034500008714C0008F8B5234F0C460646DE
:104CC800FFF730FEBB685D6825F00305291B01F678
:104CD800EF7121F47F6121F00F01A1F58054B4F543
:104CE800805F07DB30460021FFF720FEBB682B44BE
:104CF800984204D03046FFF717FE0020F8BD304632
:104D08006142FFF713FE01300DD0104BBA681968E5
:104D18002D1B45F001053046091B55601960FFF74A
:104D280003FE0120F8BD30460021FFF7FFFDBA68F9
:104D3800831A0F2BDEDD064C0449246843F0010377
:104D4800001B53600860D5E7800500206C0A00202E
:104D58008C09002000294ED02DE9F0410C468046F0
:104D6800FFF7E0FD54F8047C624927F00102A4F142
:104D78000805AB188E6858689E4220F003005AD088
:104D8800FE0758600BD454F8087CED1B01F1080E9F
:104D9800AC6874453A4467D0EF68E760BC601C189B
:104DA8006468E4070CD4544F9C68BC4202447CD02D
:104DB800D868E06042F0010384606B60AA5003E0A9
:104DC80042F001036B60AA50B2F5007F14D2D208FA
:104DD80001EBC20348689F68AF609210012404FA8F
:104DE80002F21043EB6048609D60FD604046BDE8FC
:104DF800F041FFF799BD7047530A042B47D8930930
:104E080003F13804600001EB80003A49836883426B
:104E180043D0596821F00301914202D99B68984216
:104E2800F7D1DA68EA60AB6040469560DD60BDE8BE
:104E3800F041FFF779BDFF07024407D454F8083C56
:104E4800ED1A1A44A868EB68C36098602B4B1B687E
:104E580042F001009A4268608D60C7D3284B4046F3
:104E68001968FFF729FFC1E719184968C90709D464
:104E7800D9689B68024442F00100D9608B60686081
:104E8800AA50B3E742F001036B60AA50AEE7142BB7
:104E980014D803F15B046000B5E74A68A410012048
:104EA800A04002434A601A46BCE742F001034D6144
:104EB8000D61EC60AC606B60AA5097E7542B04D886
:104EC800130B03F16E0460009DE7B3F5AA7F04D8C5
:104ED800D30B03F17704600095E740F25450834206
:104EE80004D8930C03F17C0460008CE7FC207E243A
:104EF80089E700BF80050020880500208809002078
:104F0800680A002070B5084C064600250846114678
:104F18001A462560FEF7B4FE431C00D070BD236816
:104F2800002BFBD0336070BDA00A002070B5084C80
:104F380006460025084611461A462560FEF73CFE3F
:104F4800431C00D070BD2368002BFBD0336070BDBC
:104F5800A00A002038B50C460968054609B1FFF7D4
:104F6800F9FF28462146BDE83840FFF7F3BE00BFE9
:104F7800204B1B6898423CD0C36C70B505468BB17A
:104F88000026995939B10C682846FFF7E3FE2146F7
:104F9800002CF8D1EB6C0436802EF2D11946284645
:104FA800FFF7D8FE296C11B12846FFF7D3FED5F8D4
:104FB800481151B105F5A676B14206D00C682846CD
:104FC800FFF7C8FEA6422146F8D1696D11B12846FF
:104FD800FFF7C0FEAB6B03B970BDEB6B2846984773
:104FE800D5F8E0120029F7D02846BDE87040FFF751
:104FF800B1BF7047780500200010002000400080F5
:105008000800000008000000080000000800000078
:105018000100000001000000010000000000000085
:1050280000000000060000004300000050010020BE
:105038003A74740000000000F8B500BFF8BC08BC62
:105048009E467047F8B500BFF8BC08BC9E4670473E
:085058008CB1FF7F0100000094
:08506000DD380008AD01000875
:0450680089010008B2
:10506C000000000000000000000000000000000034
:10507C000000000000000000000000000000000024
:10508C000000000000000000000000000000000014
:10509C000000000000000000000000000000000004
:1050AC0000000000000000000000000000000000F4
:1050BC0000000000000000000000000000000000E4
:1050CC0000000000000000000000000000000000D4
:1050DC0000000000000000000000000000000000C4
:1050EC0000000000000000000000000000000000B4
:1050FC0000000000000000000000000000000000A4
:10510C000000000000000000000000000000000093
:10511C000000000000000000000000000000000083
:10512C000000000000000000000000000000000073
:10513C000000000000000000000000000000000063
:10514C000000000000000000000000000000000053
:10515C000000000000000000000000000000000043
:10516C000000000000000000000000000000000033
:10517C0000000000007A030A00000000000000009C
:10518C0001020304060708090000000001020304E1
:10519C000102030406070809000C0240000C02403F
:1051AC00000C0240000C0240000002400000000015
:1051BC00000000003C040020A40400200C0500208A
:1051CC0000000000000000000000000000000000D3
:1051DC0000000000000000000000000000000000C3
:1051EC00000000003050000800000000000000002B
:1051FC0000000000000000000000000000000000A3
:10520C000000000000000000000000000000000092
:10521C000000000000000000000000000000000082
:10522C000000000000000000000000000000000072
:10523C000000000000000000000000000000000062
:10524C000000000000000000000000000000000052
:10525C000000000000000000010000000000000041
:10526C000E33CDAB34126DE6ECDE05000B00000006
:10527C000000000000000000000000000000000022
:10528C000000000000000000000000000000000012
:10529C000000000000000000000000000000000002
:1052AC0000000000000000000000000000000000F2
:1055DC00000000000000000050010020ADDEFECAFB
:1055EC000000000000000000800500208005002065
:1055FC0088050020880500209005002090050020DB
:10560C009805002098050020A0050020A00500208A
:10561C00A8050020A8050020B0050020B00500203A
:10562C00B8050020B8050020C0050020C0050020EA
:10563C00C8050020C8050020D0050020D00500209A
:10564C00D8050020D8050020E0050020E00500204A
:10565C00E8050020E8050020F0050020F0050020FA
:10566C00F8050020F80500200006002000060020A8
:10567C000806002008060020100600201006002056
:10568C001806002018060020200600202006002006
:10569C0028060020280600203006002030060020B6
:1056AC003806002038060020400600204006002066
:1056BC004806002048060020500600205006002016
:1056CC0058060020580600206006002060060020C6
:1056DC006806002068060020700600207006002076
:1056EC007806002078060020800600208006002026
:1056FC0088060020880600209006002090060020D6
:10570C009806002098060020A0060020A006002085
:10571C00A8060020A8060020B0060020B006002035
:10572C00B8060020B8060020C0060020C0060020E5
:10573C00C8060020C8060020D0060020D006002095
:10574C00D8060020D8060020E0060020E006002045
:10575C00E8060020E8060020F0060020F0060020F5
:10576C00F8060020F80600200007002000070020A3
:10577C000807002008070020100700201007002051
:10578C001807002018070020200700202007002001
:10579C0028070020280700203007002030070020B1
:1057AC003807002038070020400700204007002061
:1057BC004807002048070020500700205007002011
:1057CC0058070020580700206007002060070020C1
:1057DC006807002068070020700700207007002071
:1057EC007807002078070020800700208007002021
:1057FC0088070020880700209007002090070020D1
:10580C009807002098070020A0070020A007002080
:10581C00A8070020A8070020B0070020B007002030
:10582C00B8070020B8070020C0070020C0070020E0
:10583C00C8070020C8070020D0070020D007002090
:10584C00D8070020D8070020E0070020E007002040
:10585C00E8070020E8070020F0070020F0070020F0
:10586C00F8070020F807002000080020000800209E
:10587C00080800200808002010080020100800204C
:10588C0018080020180800202008002020080020FC
:10589C0028080020280800203008002030080020AC
:1058AC00380800203808002040080020400800205C
:1058BC00480800204808002050080020500800200C
:1058CC0058080020580800206008002060080020BC
:1058DC00680800206808002070080020700800206C
:1058EC00780800207808002080080020800800201C
:1058FC0088080020880800209008002090080020CC
:10590C009808002098080020A0080020A00800207B
:10591C00A8080020A8080020B0080020B00800202B
:10592C00B8080020B8080020C0080020C0080020DB
:10593C00C8080020C8080020D0080020D00800208B
:10594C00D8080020D8080020E0080020E00800203B
:10595C00E8080020E8080020F0080020F0080020EB
:10596C00F8080020F8080020000900200009002099
:10597C000809002008090020100900201009002047
:10598C0018090020180900202009002020090020F7
:10599C0028090020280900203009002030090020A7
:1059AC003809002038090020400900204009002057
:1059BC004809002048090020500900205009002007
:1059CC0058090020580900206009002060090020B7
:1059DC006809002068090020700900207009002067
:1059EC00780900207809002000000200FFFFFFFF6B
:0459FC0000000000A7
:04000005080040FDB2
:00000001FF
