:020000040800F2
:10000000000002204D130008B5040008B9040008E0
:10001000BD040008C1040008C50400080000000079
:10002000000000000000000000000000C9040008FB
:10003000CD04000800000000D1040008D504000829
:1000400095130008951300089513000895130008F0
:1000500095130008951300089513000895130008E0
:1000600095130008951300089513000895130008D0
:1000700095130008951300089513000895130008C0
:1000800095130008951300089513000895130008B0
:1000900095130008951300089513000895130008A0
:1000A0009513000895130008951300089513000890
:1000B0009513000895130008951300089513000880
:1000C0009513000895130008951300089513000870
:1000D0009513000895130008951300089513000860
:1000E0009513000895130008951300089513000850
:1000F0009513000895130008951300089513000840
:10010000951300089513000895130008951300082F
:10011000951300089513000895130008951300081F
:10012000951300089513000895130008951300080F
:1001300095130008951300089513000895130008FF
:1001400095130008951300089513000895130008EF
:1001500095130008951300089513000895130008DF
:1001600095130008951300089513000895130008CF
:1001700095130008951300089513000895130008BF
:08018000951300089513000817
:1001880010B5054C237833B9044B13B10448AFF3C9
:1001980000800123237010BD5804002000000000D7
:1001A80070160008084B10B51BB108480849AFF392
:1001B80000800848036803B910BD074B002BFBD02B
:1001C800BDE81040184700BF000000007016000886
:1001D8005C0400205404002000000000154B002B94
:1001E80008BF134B9D46A3F5803A00218B460F4666
:1001F8001348144A121A01F003F90F4B002B00D0D0
:1002080098470E4B002B00D098470020002104008F
:100218000D000D48002802D00C4801F0B3F901F098
:10022800C7F82000290001F071F801F0B1F800BF0B
:1002380000000800000000000000000000000000AE
:10024800580400207C0400208D150008991500082A
:100258002DE9F0433548364FDFF8E090DFF8E080CD
:10026800344E9DB0012100F055FF4FF4806001210C
:1002780000F080FF4FF0806300244FF4006C4FF4CF
:10028800005E01254FF4807238460D930DA94FF496
:100298000033CDF850C0CDF854E016921793CDF83E
:1002A8003890CDF83C8010941294139418941A94B2
:1002B8001B941195199500F079FB3846294600F0F2
:1002C800BFFB04220DEB020103231B4801928DF8AA
:1002D80008308DF80B4000F025FD03A80394049422
:1002E8000594069400F034F9304607A907948DF870
:1002F80020408DF8215009940B948DF8305000F06F
:10030800F5F823462A4630460C2100F073F93046AA
:10031800294600F0F9F93046294600F0EBF9304655
:10032800294600F02FF91DB0BDE8F0830400400015
:100338001064024000220140000802404C220140A3
:1003480074040020364B37481A68002142F0010235
:100358001A6099601A6822F0847222F480321A6056
:1003680058601A6882B022F480221A60D96000911D
:1003780001911A6842F480321A601A4603E0009B21
:10038800B3F5A06F09D0136803F400330193009B01
:1003980001330093019B002BF1D0214B1B6813F410
:1003A800003318BF01230193019B012B05D01E4B7D
:1003B8004FF000629A6002B07047194B1B491A6CE3
:1003C8001B4842F080521A640A6842F480420A606C
:1003D8009A689A609A6842F400429A609A6842F46D
:1003E800A0529A6058601A6842F080721A601A46E1
:1003F80011680B4B8901FBD50E4A40F2056111606B
:100408009A6822F003029A609A6842F002029A609F
:100418001A46936803F00C03082BFAD1C7E700BF0C
:10042800003802401030002400ED00E00070004069
:1004380008484006003C02401848836803F00C0353
:10044800042B28D0082B09D0154B144A154992685B
:10045800C2F303128A5CD3400B617047436841685A
:1004680013F4800F436818BF0F4801F03F020CBF18
:100478000B49B0FBF2F1C3F3881308BFB1FBF2F1EB
:1004880001FB03F2054B5B68C3F3014301335B00D7
:10049800B2FBF3F3D9E7044BD7E700BF00380240BB
:1004A8000024F4000400002000127A00704700BF06
:1004B800FEE700BFFEE700BFFEE700BFFEE700BFA4
:1004C800704700BF704700BF704700BF704700BF4C
:1004D80008B54FF48070012100F088FE4FF4807059
:1004E8000021BDE8084000F081BE00BFF0B54468B7
:1004F8000A6891F804C0D1F80CE00E698D684F794C
:100508000D4B24F0407424F48074224342EA0C22F8
:10051800426084684EEA06022A432340134343EAB2
:10052800470383600A7DC36A013AD2B223F4700399
:1005380043EA0253C362F0BDFDF7FFC00023012266
:1005480002750360037143718360C3600361704780
:1005580070B490E84400064D8468C168054B68682B
:10056800324322430A43034013436B6070BC704715
:1005780000230140E030FCFF0023036043608360F8
:10058800C3607047836819B923F00103836070471B
:1005980043F0010383607047436823F4400323F466
:1005A800007319434160704741628262704700BF1F
:1005B800436823F01F03194341607047054A536895
:1005C80018B923F400035360704743F400035360E1
:1005D800704700BF00230140054A536818B923F447
:1005E80080035360704743F480035360704700BF33
:1005F80000230140092970B41CD9A1F10A0404EBB5
:100608004404C5680726A640A34025EA06042343F8
:10061800062AC3601AD90C2A25D90D3AC46A02EBF6
:1006280082021F23934024EA030391401943C162C5
:1006380070BC704701EB410605690724B440B3401C
:1006480025EA04042343062A0361E4D8013A446BEB
:1006580002EB82021F23934024EA030391401943CB
:10066800416370BC7047073A046B02EB82021F2398
:10067800934024EA030391401943016370BC704717
:10068800836843F080438360704700BF8068C0F38D
:1006980080507047836819B923F48063836070477A
:1006A80043F4806383607047836819B923F00203B9
:1006B8008360704743F002038360704743680139E1
:1006C80023F4604343EA413141607047436819B9F4
:1006D80023F400634360704743F40063436070474A
:1006E800C06C80B2704700BF014B1868704700BFEC
:1006F80008230140836819B923F480738360704725
:1007080043F4807383607047836819B923F40073D6
:100718008360704743F4007383607047054A5368E9
:1007280018B923F400535360704743F400535360DF
:10073800704700BF00230140092970B41AD801EBA3
:10074800410605690724B440B34025EA040423435D
:100758000361836B0232C3F30154121BD2B202EB62
:1007680082021F24944023EA0403914019438163C1
:1007780070BC7047A1F10A0404EB4404C56807265D
:10078800A640A34025EA06042343C360E1E700BF6F
:10079800836B013923F4401343EA015181637047A5
:1007A80082B0002301930190019B19440191019BA0
:1007B8001A6002B0704700BF836823F4702319439E
:1007C80081607047836823F4401319438160704740
:1007D800836843F480038360704700BF8068C0F378
:1007E80080507047436819B923F4806343607047A9
:1007F80043F4806343607047436819B923F4805316
:100808004360704743F480534360704782B00023CD
:1008180001930190019B283319440191019B1868A9
:1008280080B202B0704700BFC9B201238B4022B921
:10083800426822EA030343607047426813434360F7
:10084800704700BF0368194214BF01200020704799
:10085800C9430160704700BF4268006810EA112070
:1008680006D0C9B201238B40134214BF01200020D7
:10087800704700BF6FEA112101607047026837496D
:10088800002310B422F00102212488420260036090
:1008980043608360C360036144614DD0304B98422C
:1008A80035D0304B984239D02F4B98423DD02F4B02
:1008B800984247D02E4B984248D02E4B98421DD094
:1008C8002D4B98421ED02D4B984243D02C4B98422A
:1008D8001DD02C4B984221D02B4B984225D02B4B26
:1008E80098422FD02A4B984230D02A4B984205D0B4
:1008F800294B984206D05DF8044B7047274A43F8C5
:10090800942CF8E74FF03D5243F8AC2CF3E74FF442
:10091800746243F8202C5DF8044B70474FF474124E
:1009280043F8382C5DF8044B70474FF0746243F875
:10093800502C5DF8044B7047194B5DF8044B3D2271
:100948009A607047174A43F8642CD4E7164A43F86C
:100958007C2CD0E73D2243F8082CCCE710600240FD
:1009680028600240406002405860024070600240C7
:1009780088600240A0600240B860024010640240F3
:100988002864024040640240586402407064024097
:1009980088640240A0640240B864024000003D2020
:1009A800006002403D000020400F00202DE9F0418A
:1009B80082B08B6A0193CB684F698E69CD690C6AE6
:1009C8004A6AD0F800C0DFF850E098460B6848EA59
:1009D800030848EA07073E4335432C43019B0E6B47
:1009E8000D69224313434A6B4C6813438A6B0CEA24
:1009F8000E0E134343EA0E0303604269CB6A89680B
:100A080022F0070233431343436145608460C160A9
:100A180002B0BDE8F08100BF3F801CF000230360F6
:100A280043608360C360036143618361C3610362A0
:100A380043628362C362036343638363704700BF97
:100A4800036819B923F001030360704743F00103F9
:100A580003607047036819B923F4004303607047C3
:100A680043F4004303607047036819B923F0200377
:100A78000360704743F0200303607047416070478C
:100A8800406880B2704700BF036822B923F400238E
:100A980003600161704743F40023036001617047FC
:100AA800036819B923F480230360704743F4802353
:100AB800036070470AB9C16070470161704700BFA1
:100AC8000068C0F3C0407047006800F0010070473C
:100AD800406900F0380070470B4B0C4A10B40C4CBE
:100AE800A04294BF184610468B004CBF4368036869
:100AF8005DF8044B21F0F02121F08211194214BF56
:100B080001200020704700BF0060024000640240DE
:100B18000F64024010B4094B094C0A4AA04294BF22
:100B28001846104611F0005F21F0F02121F08211E3
:100B380014BFC16081605DF8044B704700600240DB
:100B48000F640240006402400B060CD54369AAB149
:100B580043F08003802943610FD0036801F01E0130
:100B6800194301607047802907D0002AF5D103682E
:100B780001F01E0123EA01010160704723F08003A0
:100B880080294361F3D1704770B4104A104E114C5C
:100B980021F0F02323F0C315B04298BF14468DB15D
:100BA800006800F01E0000EAD12289004CBF60688E
:100BB800206823F08213184002D0101C18BF0120AF
:100BC80070BC7047406900F08002EEE700600240A8
:100BD8000F6402400064024010B4094B094C0A4AF1
:100BE800A04294BF1846104611F0005F21F0F02192
:100BF80021F0821114BFC16081605DF8044B704719
:100C0800006002400F6402400064024008B53C4B9B
:100C1800984224D03B4B98422BD03B4B984232D041
:100C28003A4B984239D03A4B984240D0394B984287
:100C380047D0394B98424ED0384B984255D0384B14
:100C4800984200D008BD4FF48070012100F09EFA50
:100C58004FF480700021BDE8084000F097BA0120E9
:100C6800014600F093FA01200021BDE8084000F099
:100C78008DBA0220012100F089FA02200021BDE886
:100C8800084000F083BA0420012100F07FFA042014
:100C98000021BDE8084000F079BA0820012100F0E1
:100CA80075FA08200021BDE8084000F06FBA10204E
:100CB800012100F06BFA10200021BDE8084000F087
:100CC80065BA2020012100F061FA20200021BDE84A
:100CD800084000F05BBA4020012100F057FA40209C
:100CE8000021BDE8084000F051BA8020012100F041
:100CF8004DFA80200021BDE8084000F047BA00BF47
:100D0800000002400004024000080240000C0240BB
:100D1800001002400014024000180240001C02406B
:100D28000020024000222DE9F0431346D1F800E0EC
:100D380001274FF0030C04E00133102B02F10202EB
:100D480028D007FA03F404EA0E05A542F4D1D0F836
:100D580000800E790CFA02F4E44304EA0808C0F8AB
:100D68000080D0F8008006FA02F9013E49EA080836
:100D7800012EC0F800800FD9C568CE792C40C46018
:100D8800C56806FA02F401332C43102BC46002F143
:100D98000202D6D1BDE8F083D0F8089091F805801A
:100DA8008E7904EA0909C0F80890D0F8089008FA82
:100DB80002F848EA0908C0F80880D0F8048028EA50
:100DC80005054560D0F8048006FA03F5ADB245EA9A
:100DD80008054560D0E700BF00234FF6FF720260A8
:100DE800037143718371C371704700BF82B04FF4C0
:100DF80080330193019B0B430193019BC361C16144
:100E0800019BC361C3690193C369019302B0704731
:100E18000369194214BF012000207047006980B29D
:100E2800704700BF4369194214BF01200020704772
:100E3800406980B2704700BF0183704741837047A3
:100E48000AB9418370470183704700BF4161704709
:100E58004369594041617047CB0800EB830001F0BA
:100E6800070110B48900046A0F238B4024EA0303A6
:100E78000362036A5DF8044B8A40134303627047B8
:100E88000A4B0B481A68002142F001021A60996067
:100E98001A6822F0847222F480321A6058601A6844
:100EA80022F480221A60D960704700BF00380240DF
:100EB80010300024024B00221A701870704700BFCF
:100EC8000238024082B000230A4A019302E0B3F5D7
:100ED800A06F08D0136813F4003F019B03F10103CE
:100EE8000193019BF3D0034B1868C0F3404002B054
:100EF800704700BF00380240034A136823F0F80324
:100F080043EAC0001060704700380240014B186087
:100F1800704700BF00004742064B002201281A70A4
:100F28001A7005D0042802D105221A70704770473C
:100F38001870704770380240014B1860704700BF46
:100F4800800E474230B4029C064D40EA04600143DB
:100F58005B08013B41EA821242EA0340686030BC08
:100F6800704700BF00380240014B1860704700BF4F
:100F7800600047420907034B41EA8010C3F8840028
:100F8800704700BF00380240014B1860704700BF2F
:100F980068004742014B1860704700BF4C00474249
:100FA800034A936823F0EC63194308439060704741
:100FB80000380240034A936823F0784319430843F2
:100FC8009060704700380240034A936823F0030397
:100FD80018439060704700BF00380240024B986881
:100FE80000F00C00704700BF00380240034A9368C5
:100FF80023F0F00318439060704700BF00380240A8
:10100800034A936823F4E05318439060704700BF85
:1010180000380240034A936823F4604343EAC0005F
:10102800906070470038024010B4214CA36803F068
:101038000C03042B1BD0082B1CD01E4B03601C4A2E
:101048001D499468C4F303140C5DE340436094683D
:10105800C4F382240C5D23FA04F4846092685DF87A
:10106800044BC2F342328A5CD340C3607047134BCF
:101078000360E4E76368616813F4800F636818BF6E
:101088000E4C01F03F020CBF0A49B4FBF2F1C3F366
:10109800881308BFB1FBF2F101FB03F2044B5B6854
:1010A800C3F3014301335B00B2FBF3F30360C6E70C
:1010B800003802400024F4001800002000127A00D2
:1010C80000F44073B3F5407F09D108498B6820F0DC
:1010D800704223F4F81322F4407213438B60034ADE
:1010E800136FC0F30B0018431067704700380240B5
:1010F800014B1860704700BF3C0E4742014B186017
:10110800704700BF400E4742014B1860704700BF50
:101118005C014742044A136B19B923EA00001063C3
:10112800704718431063704700380240044A536BF5
:1011380019B923EA00005063704718435063704799
:1011480000380240044A936B19B923EA00009063FF
:10115800704718439063704700380240044A136C84
:1011680019B923EA000010647047184310647047E7
:1011780000380240044A536C19B923EA000050644D
:10118800704718435064704700380240044A136996
:1011980019B923EA000010617047184310617047BD
:1011A80000380240044A536919B923EA0000506123
:1011B800704718435061704700380240044A9369E9
:1011C80019B923EA0000906170471843906170478D
:1011D80000380240044A136A19B923EA0000106271
:1011E800704718431062704700380240044A536A37
:1011F80019B923EA000050627047184350627047DB
:1012080000380240044A136D19B923EA000010653A
:10121800704718431065704700380240044A536D00
:1012280019B923EA000050657047184350657047A4
:1012380000380240044A936D19B923EA000090650A
:10124800704718439065704700380240044A136E8F
:1012580019B923EA000010667047184310667047F2
:1012680000380240044A536E19B923EA0000506658
:10127800704718435066704700380240044A137894
:1012880019B923EA000010707047184310707047AE
:101298000D3802404309012B0BD0022B094B0CBF20
:1012A8001A6F5A6F00F01F0322FA03F000F00100D2
:1012B8007047044B1A6800F01F0322FA03F000F08D
:1012C8000100704700380240024A536F43F08073B0
:1012D8005367704700380240034BDB68184214BF5D
:1012E80001200020704700BF00380240014B1870F1
:1012F800704700BF0E380240A0160008000000200A
:1013080054040020580400207C04002008B5FEF78F
:101318009FFF0948094CFFF7B3F9094940F6E44033
:101328000B889BB200FB03F384FB03E21A44DB1730
:10133800C3EBE2234B60F3E7002201408100088001
:1013480074040020002103E00B4B5B584350043128
:101358000A480B4B42189A42F6D30A4A02E0002385
:1013680042F8043B084B9A42F9D3FEF7EBFF00F032
:101378001FF8FFF7CBFF7047A016000800000020F9
:1013880054040020580400207C040020FEE70000DC
:1013980008B50021044600F08BF8044B1868C36BAD
:1013A80003B19847204600F06DF900BF6C1600089D
:1013B80070B50F4E0F4D761BB61018BF002405D020
:1013C800013455F8043B9847A642F9D10A4E0B4D13
:1013D800761B00F04BF9B61018BF002406D0013474
:1013E80055F8043B9847A642F9D170BD70BD00BFBF
:1013F80094160008941600089C1600089416000815
:1014080070B4840746D0541E002A41D0CDB203469A
:1014180002E0621EE4B3144603F8015B9A07F8D1B0
:10142800032C2ED9CDB245EA05250F2C45EA0545F2
:1014380019D903F110022646103E0F2E42F8105C0F
:1014480042F80C5C42F8085C42F8045C02F11002B5
:10145800F2D8A4F1100222F00F0204F00F041032A7
:10146800032C13440DD91E462246043A032A46F893
:10147800045BFAD8221F22F003020432134404F05A
:1014880003042CB1C9B21C4403F8011BA342FBD1CD
:1014980070BC704714460346C2E700BF024B13B145
:1014A800024800F06FB87047000000009915000866
:1014B8002DE9F04F314B83B01B68009303F5A473FB
:1014C80081460E460193009BD3F8487127B3DDF897
:1014D80004A07C68651E0ED4013407EB84044FF029
:1014E8000008E6B1D4F80031B34218D0013D6B1CB6
:1014F800A4F10404F5D1224B73B17B68002B36D1DB
:101508003B68002B34D03846CAF80030AFF300806F
:10151800DAF80070002FDCD103B0BDE8F08F7B68EB
:101528002268013BAB420CBF7D60C4F80080002AF2
:10153800DCD0D7F88831D7F804B00121A940194286
:1015480008D190477B685B45BDD1DAF80030BB42D3
:10155800CCD0B8E7D7F88C31194204D14846D4F832
:1015680080109047EEE7D4F880009047EAE73B68A0
:10157800BA461F46002FACD1CEE700BF6C16000854
:1015880000000000014600200246034600F016B89D
:1015980038B5084B084DED1AAC1018BFED1805D03A
:1015A800013C55F8043D9847002CF9D1BDE8384076
:1015B80000F062B89C160008A01600082DE9F04754
:1015C800254C2568D5F848410646884692469946EE
:1015D800CCB360681F2818DC431C7EB104EB80057F
:1015E8000121C5F888A0D4F8887101FA00F21743E0
:1015F800022EC4F88871C5F808911ED002306360C5
:1016080044F820800020BDE8F087144B03B34FF462
:10161800C870AFF300800446D0B1D5F84831002730
:1016280080E88800C5F8484138460123C4F8887125
:10163800C4F88C71002EE1D0D0E7D4F88C110A439D
:10164800C4F88C21DAE705F5A674C5F84841C0E767
:101658004FF0FF30BDE8F0876C160008000000006E
:10166800430000002800002000000000F8B500BF7B
:10167800F8BC08BC9E467047F8B500BFF8BC08BC6B
:041688009E467047C3
:08168C0058EBFF7F0100000094
:08169400A5140008AD010008D7
:04169C0089010008B8
:1016A0000000000000000000000000000102030430
:1016B0000607080900449508000000000102030421
:1016C00001020304060708090000000014030020BB
:1016D0007C030020E4030020000000000000000064
:1016E00000000000000000000000000000000000FA
:1016F0000000000000000000000000006816000864
:1017000000000000000000000000000000000000D9
:1017100000000000000000000000000000000000C9
:1017200000000000000000000000000000000000B9
:1017300000000000000000000000000000000000A9
:101740000000000000000000000000000000000099
:101750000000000000000000000000000000000089
:101760000000000000000000000000000000000079
:1017700001000000000000000E33CDAB34126DE616
:10178000ECDE05000B00000000000000000000007F
:101790000000000000000000000000000000000049
:1017A0000000000000000000000000000000000039
:1017B0000000000000000000000000000000000029
:1017C0000000000000000000000000000000000019
:041AF00028000020AA
:041AF40000000000EE
:040000050800134D8F
:00000001FF
